{
  "contractName": "IoTDevices",
  "abi": [
    {
      "constant": true,
      "inputs": [
        {
          "name": "",
          "type": "uint256"
        }
      ],
      "name": "deviceslist",
      "outputs": [
        {
          "name": "id",
          "type": "uint256"
        },
        {
          "name": "seller",
          "type": "address"
        },
        {
          "name": "name",
          "type": "string"
        },
        {
          "name": "description",
          "type": "string"
        },
        {
          "name": "switchon",
          "type": "uint256"
        },
        {
          "name": "deviceid",
          "type": "string"
        },
        {
          "name": "color",
          "type": "string"
        },
        {
          "name": "lastcomtime",
          "type": "string"
        }
      ],
      "payable": false,
      "stateMutability": "view",
      "type": "function",
      "signature": "0xbfde761a"
    },
    {
      "anonymous": false,
      "inputs": [
        {
          "indexed": true,
          "name": "_id",
          "type": "uint256"
        },
        {
          "indexed": true,
          "name": "_seller",
          "type": "address"
        },
        {
          "indexed": false,
          "name": "_name",
          "type": "string"
        },
        {
          "indexed": false,
          "name": "_deviceid",
          "type": "string"
        }
      ],
      "name": "LogAddDevice",
      "type": "event",
      "signature": "0x2f53640fdd006d52b83848cd558dda474b14f28b794e1040ecd7484cdd4f65a8"
    },
    {
      "anonymous": false,
      "inputs": [
        {
          "indexed": true,
          "name": "_id",
          "type": "uint256"
        },
        {
          "indexed": false,
          "name": "color",
          "type": "string"
        }
      ],
      "name": "LogColorChange",
      "type": "event",
      "signature": "0xfb24c354e0ab288317f42ef6c82b1d13b42b18a266473b93524cabe1c60ce02b"
    },
    {
      "anonymous": false,
      "inputs": [
        {
          "indexed": true,
          "name": "_id",
          "type": "uint256"
        },
        {
          "indexed": false,
          "name": "switchon",
          "type": "uint256"
        }
      ],
      "name": "LogSwitchonChange",
      "type": "event",
      "signature": "0xc1b56659144ad0cd4bd2e49ce3443a9dc3ecacde1e8f4eea763dfeba7f6f0170"
    },
    {
      "constant": false,
      "inputs": [
        {
          "name": "_name",
          "type": "string"
        },
        {
          "name": "_description",
          "type": "string"
        },
        {
          "name": "_deviceid",
          "type": "string"
        },
        {
          "name": "lastcomtime",
          "type": "string"
        }
      ],
      "name": "addDevice",
      "outputs": [
        {
          "name": "",
          "type": "string"
        }
      ],
      "payable": false,
      "stateMutability": "nonpayable",
      "type": "function",
      "signature": "0x0bb1afc6"
    },
    {
      "constant": false,
      "inputs": [
        {
          "name": "id",
          "type": "uint256"
        },
        {
          "name": "color",
          "type": "string"
        }
      ],
      "name": "changeDeviceColor",
      "outputs": [],
      "payable": false,
      "stateMutability": "nonpayable",
      "type": "function",
      "signature": "0x4fbee4a2"
    },
    {
      "constant": false,
      "inputs": [
        {
          "name": "id",
          "type": "uint256"
        },
        {
          "name": "switchon",
          "type": "uint256"
        }
      ],
      "name": "changeDeviceSwitchon",
      "outputs": [],
      "payable": false,
      "stateMutability": "nonpayable",
      "type": "function",
      "signature": "0x50f10717"
    },
    {
      "constant": true,
      "inputs": [
        {
          "name": "id",
          "type": "uint256"
        }
      ],
      "name": "fetchDeviceStatus",
      "outputs": [
        {
          "name": "name",
          "type": "string"
        },
        {
          "name": "description",
          "type": "string"
        },
        {
          "name": "switchon",
          "type": "uint256"
        },
        {
          "name": "deviceid",
          "type": "string"
        },
        {
          "name": "color",
          "type": "string"
        },
        {
          "name": "lastcomtime",
          "type": "string"
        }
      ],
      "payable": false,
      "stateMutability": "view",
      "type": "function",
      "signature": "0x6bb68b86"
    },
    {
      "constant": true,
      "inputs": [],
      "name": "getNumberOfdevices",
      "outputs": [
        {
          "name": "",
          "type": "uint256"
        }
      ],
      "payable": false,
      "stateMutability": "view",
      "type": "function",
      "signature": "0x4dc4d0e5"
    },
    {
      "constant": true,
      "inputs": [],
      "name": "getDevices",
      "outputs": [
        {
          "name": "",
          "type": "uint256[]"
        }
      ],
      "payable": false,
      "stateMutability": "view",
      "type": "function",
      "signature": "0xd611d6c8"
    }
  ],
  "bytecode": "0x608060405234801561001057600080fd5b506117c3806100206000396000f3fe608060405260043610610083576000357c0100000000000000000000000000000000000000000000000000000000900463ffffffff1680630bb1afc6146100885780634dc4d0e51461038e5780634fbee4a2146103b957806350f107171461048b5780636bb68b86146104d0578063bfde761a1461073b578063d611d6c8146109e0575b600080fd5b34801561009457600080fd5b50610313600480360360808110156100ab57600080fd5b81019080803590602001906401000000008111156100c857600080fd5b8201836020820111156100da57600080fd5b803590602001918460018302840111640100000000831117156100fc57600080fd5b91908080601f016020809104026020016040519081016040528093929190818152602001838380828437600081840152601f19601f8201169050808301925050505050505091929192908035906020019064010000000081111561015f57600080fd5b82018360208201111561017157600080fd5b8035906020019184600183028401116401000000008311171561019357600080fd5b91908080601f016020809104026020016040519081016040528093929190818152602001838380828437600081840152601f19601f820116905080830192505050505050509192919290803590602001906401000000008111156101f657600080fd5b82018360208201111561020857600080fd5b8035906020019184600183028401116401000000008311171561022a57600080fd5b91908080601f016020809104026020016040519081016040528093929190818152602001838380828437600081840152601f19601f8201169050808301925050505050505091929192908035906020019064010000000081111561028d57600080fd5b82018360208201111561029f57600080fd5b803590602001918460018302840111640100000000831117156102c157600080fd5b91908080601f016020809104026020016040519081016040528093929190818152602001838380828437600081840152601f19601f820116905080830192505050505050509192919290505050610a4c565b6040518080602001828103825283818151815260200191508051906020019080838360005b83811015610353578082015181840152602081019050610338565b50505050905090810190601f1680156103805780820380516001836020036101000a031916815260200191505b509250505060405180910390f35b34801561039a57600080fd5b506103a3610d17565b6040518082815260200191505060405180910390f35b3480156103c557600080fd5b50610489600480360360408110156103dc57600080fd5b81019080803590602001909291908035906020019064010000000081111561040357600080fd5b82018360208201111561041557600080fd5b8035906020019184600183028401116401000000008311171561043757600080fd5b91908080601f016020809104026020016040519081016040528093929190818152602001838380828437600081840152601f19601f820116905080830192505050505050509192919290505050610d21565b005b34801561049757600080fd5b506104ce600480360360408110156104ae57600080fd5b810190808035906020019092919080359060200190929190505050610dec565b005b3480156104dc57600080fd5b50610509600480360360208110156104f357600080fd5b8101908080359060200190929190505050610e42565b60405180806020018060200187815260200180602001806020018060200186810386528c818151815260200191508051906020019080838360005b8381101561055f578082015181840152602081019050610544565b50505050905090810190601f16801561058c5780820380516001836020036101000a031916815260200191505b5086810385528b818151815260200191508051906020019080838360005b838110156105c55780820151818401526020810190506105aa565b50505050905090810190601f1680156105f25780820380516001836020036101000a031916815260200191505b50868103845289818151815260200191508051906020019080838360005b8381101561062b578082015181840152602081019050610610565b50505050905090810190601f1680156106585780820380516001836020036101000a031916815260200191505b50868103835288818151815260200191508051906020019080838360005b83811015610691578082015181840152602081019050610676565b50505050905090810190601f1680156106be5780820380516001836020036101000a031916815260200191505b50868103825287818151815260200191508051906020019080838360005b838110156106f75780820151818401526020810190506106dc565b50505050905090810190601f1680156107245780820380516001836020036101000a031916815260200191505b509b50505050505050505050505060405180910390f35b34801561074757600080fd5b506107746004803603602081101561075e57600080fd5b81019080803590602001909291905050506111ef565b604051808981526020018873ffffffffffffffffffffffffffffffffffffffff1673ffffffffffffffffffffffffffffffffffffffff168152602001806020018060200187815260200180602001806020018060200186810386528c818151815260200191508051906020019080838360005b838110156108025780820151818401526020810190506107e7565b50505050905090810190601f16801561082f5780820380516001836020036101000a031916815260200191505b5086810385528b818151815260200191508051906020019080838360005b8381101561086857808201518184015260208101905061084d565b50505050905090810190601f1680156108955780820380516001836020036101000a031916815260200191505b50868103845289818151815260200191508051906020019080838360005b838110156108ce5780820151818401526020810190506108b3565b50505050905090810190601f1680156108fb5780820380516001836020036101000a031916815260200191505b50868103835288818151815260200191508051906020019080838360005b83811015610934578082015181840152602081019050610919565b50505050905090810190601f1680156109615780820380516001836020036101000a031916815260200191505b50868103825287818151815260200191508051906020019080838360005b8381101561099a57808201518184015260208101905061097f565b50505050905090810190601f1680156109c75780820380516001836020036101000a031916815260200191505b509d505050505050505050505050505060405180910390f35b3480156109ec57600080fd5b506109f561154f565b6040518080602001828103825283818151815260200191508051906020019060200280838360005b83811015610a38578082015181840152602081019050610a1d565b505050509050019250505060405180910390f35b60606001600081548092919060010191905055506101006040519081016040528060015481526020013373ffffffffffffffffffffffffffffffffffffffff168152602001868152602001858152602001600081526020018481526020016040805190810160405280600681526020017f303361396634000000000000000000000000000000000000000000000000000081525081526020018381525060008060015481526020019081526020016000206000820151816000015560208201518160010160006101000a81548173ffffffffffffffffffffffffffffffffffffffff021916908373ffffffffffffffffffffffffffffffffffffffff1602179055506040820151816002019080519060200190610b6a929190611672565b506060820151816003019080519060200190610b87929190611672565b506080820151816004015560a0820151816005019080519060200190610bae929190611672565b5060c0820151816006019080519060200190610bcb929190611672565b5060e0820151816007019080519060200190610be8929190611672565b509050503373ffffffffffffffffffffffffffffffffffffffff166001547f2f53640fdd006d52b83848cd558dda474b14f28b794e1040ecd7484cdd4f65a88786604051808060200180602001838103835285818151815260200191508051906020019080838360005b83811015610c6d578082015181840152602081019050610c52565b50505050905090810190601f168015610c9a5780820380516001836020036101000a031916815260200191505b50838103825284818151815260200191508051906020019080838360005b83811015610cd3578082015181840152602081019050610cb8565b50505050905090810190601f168015610d005780820380516001836020036101000a031916815260200191505b5094505050505060405180910390a3949350505050565b6000600154905090565b806000808481526020019081526020016000206006019080519060200190610d4a9291906116f2565b50817ffb24c354e0ab288317f42ef6c82b1d13b42b18a266473b93524cabe1c60ce02b826040518080602001828103825283818151815260200191508051906020019080838360005b83811015610dae578082015181840152602081019050610d93565b50505050905090810190601f168015610ddb5780820380516001836020036101000a031916815260200191505b509250505060405180910390a25050565b8060008084815260200190815260200160002060040181905550817fc1b56659144ad0cd4bd2e49ce3443a9dc3ecacde1e8f4eea763dfeba7f6f0170826040518082815260200191505060405180910390a25050565b606080600060608060606000808881526020019081526020016000206002018054600181600116156101000203166002900480601f016020809104026020016040519081016040528092919081815260200182805460018160011615610100020316600290048015610ef55780601f10610eca57610100808354040283529160200191610ef5565b820191906000526020600020905b815481529060010190602001808311610ed857829003601f168201915b50505050509550856000808981526020019081526020016000206003018054600181600116156101000203166002900480601f016020809104026020016040519081016040528092919081815260200182805460018160011615610100020316600290048015610fa65780601f10610f7b57610100808354040283529160200191610fa6565b820191906000526020600020905b815481529060010190602001808311610f8957829003601f168201915b50505050509550856000808a8152602001908152602001600020600401549550856000808b81526020019081526020016000206005018054600181600116156101000203166002900480601f0160208091040260200160405190810160405280929190818152602001828054600181600116156101000203166002900480156110705780601f1061104557610100808354040283529160200191611070565b820191906000526020600020905b81548152906001019060200180831161105357829003601f168201915b50505050509550856000808c81526020019081526020016000206006018054600181600116156101000203166002900480601f0160208091040260200160405190810160405280929190818152602001828054600181600116156101000203166002900480156111215780601f106110f657610100808354040283529160200191611121565b820191906000526020600020905b81548152906001019060200180831161110457829003601f168201915b50505050509550856000808d81526020019081526020016000206007018054600181600116156101000203166002900480601f0160208091040260200160405190810160405280929190818152602001828054600181600116156101000203166002900480156111d25780601f106111a7576101008083540402835291602001916111d2565b820191906000526020600020905b8154815290600101906020018083116111b557829003601f168201915b505050505095508595509550955095509550955091939550919395565b60006020528060005260406000206000915090508060000154908060010160009054906101000a900473ffffffffffffffffffffffffffffffffffffffff1690806002018054600181600116156101000203166002900480601f0160208091040260200160405190810160405280929190818152602001828054600181600116156101000203166002900480156112c75780601f1061129c576101008083540402835291602001916112c7565b820191906000526020600020905b8154815290600101906020018083116112aa57829003601f168201915b505050505090806003018054600181600116156101000203166002900480601f0160208091040260200160405190810160405280929190818152602001828054600181600116156101000203166002900480156113655780601f1061133a57610100808354040283529160200191611365565b820191906000526020600020905b81548152906001019060200180831161134857829003601f168201915b505050505090806004015490806005018054600181600116156101000203166002900480601f0160208091040260200160405190810160405280929190818152602001828054600181600116156101000203166002900480156114095780601f106113de57610100808354040283529160200191611409565b820191906000526020600020905b8154815290600101906020018083116113ec57829003601f168201915b505050505090806006018054600181600116156101000203166002900480601f0160208091040260200160405190810160405280929190818152602001828054600181600116156101000203166002900480156114a75780601f1061147c576101008083540402835291602001916114a7565b820191906000526020600020905b81548152906001019060200180831161148a57829003601f168201915b505050505090806007018054600181600116156101000203166002900480601f0160208091040260200160405190810160405280929190818152602001828054600181600116156101000203166002900480156115455780601f1061151a57610100808354040283529160200191611545565b820191906000526020600020905b81548152906001019060200180831161152857829003601f168201915b5050505050905088565b6060806001546040519080825280602002602001820160405280156115835781602001602082028038833980820191505090505b50905060008090506000600190505b600154811115156115e4576000808281526020019081526020016000206000015483838151811015156115c157fe5b906020019060200201818152505081806001019250508080600101915050611592565b506060816040519080825280602002602001820160405280156116165781602001602082028038833980820191505090505b50905060008090505b8281101561166857838181518110151561163557fe5b90602001906020020151828281518110151561164d57fe5b9060200190602002018181525050808060010191505061161f565b5080935050505090565b828054600181600116156101000203166002900490600052602060002090601f016020900481019282601f106116b357805160ff19168380011785556116e1565b828001600101855582156116e1579182015b828111156116e05782518255916020019190600101906116c5565b5b5090506116ee9190611772565b5090565b828054600181600116156101000203166002900490600052602060002090601f016020900481019282601f1061173357805160ff1916838001178555611761565b82800160010185558215611761579182015b82811115611760578251825591602001919060010190611745565b5b50905061176e9190611772565b5090565b61179491905b80821115611790576000816000905550600101611778565b5090565b9056fea165627a7a723058207d2feeffa38e6bfc1a60c80bc5c13c7a43bccc373174a029204fa280436cbe5b0029",
  "source": "pragma solidity ^0.5.0;\n\n\ncontract IoTDevices {\n  // custom types\n  struct Device {\n    uint256 id;\n    address seller;\n    string name;\n    string description;\n    uint switchon;\n    string deviceid;\n    string color;\n    string lastcomtime;\n  }\n\n  // state variables\n  mapping (uint => Device) public  deviceslist;\n  \n  uint  deviceCounter;\n\n  // events\n  event LogAddDevice(\n    uint indexed _id,\n    address indexed _seller,\n    string _name,\n    string _deviceid\n  );\n\n  event LogColorChange(\n    uint indexed _id,\n    string color\n  );\n\n  event LogSwitchonChange(\n    uint indexed _id,\n    uint switchon\n  );\n\n  // add a device\n  function addDevice(\n    string memory _name, \n    string memory _description, \n    string memory _deviceid,\n    string memory lastcomtime\n    ) public returns (string memory) {\n\n    // if(bytes(deviceslist[deviceCounter].name).length != bytes(_name).length) {\n\n    // } else if(uint(keccak256(abi.encodePacked(deviceslist[deviceCounter].name))) == uint(keccak256(abi.encodePacked(_name)))) {\n\n\t  // } else {\n          // a new device\n           deviceCounter++;\n\n          // store this device\n           deviceslist[deviceCounter] = Device(\n            deviceCounter,\n            msg.sender,\n            _name,\n            _description,\n            0,\n            _deviceid,\n            \"03a9f4\",\n            lastcomtime\n          );\n    \n          emit LogAddDevice(deviceCounter, msg.sender, _name, _deviceid);\n    // }\n  }\n  function changeDeviceColor(uint256 id, string memory color) public {\n    deviceslist[id].color = color;\n    emit LogColorChange(id, color);\n  } \n\n    function changeDeviceSwitchon(uint256 id, uint256 switchon) public {\n    deviceslist[id].switchon = switchon;\n    emit LogSwitchonChange(id, switchon);\n  } \n\n\n\n    // fetch a device's status\n  function fetchDeviceStatus(uint256 id) external view returns (\n    string memory name,\n    string memory description,\n    uint switchon,\n    string memory deviceid,\n    string memory color,\n    string memory lastcomtime\n    ) {\n    return (\n    name = deviceslist[id].name,\n    description = deviceslist[id].description,\n    switchon = deviceslist[id].switchon,\n    deviceid = deviceslist[id].deviceid,\n    color = deviceslist[id].color,\n    lastcomtime = deviceslist[id].lastcomtime\n    );\n  }\n\n  // fetch the number of  deviceslist in the contract\n  function getNumberOfdevices() public view returns (uint) {\n    return  deviceCounter;\n  }\n\n  // fetch and return all device IDs for  deviceslist still for sale\n  function getDevices() public view returns (uint[] memory) {\n    // prepare output array\n    uint[] memory deviceIds = new uint[](deviceCounter);\n    uint numberOfDevices = 0;\n    // iterate over  deviceslist\n    for(uint i = 1; i <= deviceCounter;  i++) {\n      // keep the ID if the device\n        deviceIds[numberOfDevices] = deviceslist[i].id;\n        numberOfDevices++;\n    }\n    // copy the deviceIds array into a smaller forSale array\n    uint[] memory forSale = new uint[](numberOfDevices);\n    for(uint j = 0; j < numberOfDevices; j++) {\n      forSale[j] = deviceIds[j];\n    }\n    return forSale;\n  }\n}\n",
  "sourcePath": "/Users/mac/ChainSkills/Training/chainlist/contracts/IoTDevices.sol",
  "compiler": {
    "name": "solc",
    "version": "0.5.0+commit.1d4f565a.Emscripten.clang"
  },
  "schemaVersion": "3.0.6",
  "updatedAt": "2019-04-10T06:37:34.337Z",
  "devdoc": {
    "methods": {}
  },
  "userdoc": {
    "methods": {}
  }
}