{
  "contractName": "LightBulbs",
  "abi": [
    {
      "constant": true,
      "inputs": [
        {
          "name": "",
          "type": "uint256"
        }
      ],
      "name": "lightBulbToOwner",
      "outputs": [
        {
          "name": "",
          "type": "address"
        }
      ],
      "payable": false,
      "stateMutability": "view",
      "type": "function",
      "signature": "0x0e951d69"
    },
    {
      "constant": true,
      "inputs": [
        {
          "name": "",
          "type": "uint256"
        }
      ],
      "name": "lightBulbs",
      "outputs": [
        {
          "name": "hash_id",
          "type": "string"
        },
        {
          "name": "name",
          "type": "string"
        },
        {
          "name": "description",
          "type": "string"
        },
        {
          "name": "status",
          "type": "bool"
        },
        {
          "name": "red",
          "type": "uint8"
        },
        {
          "name": "green",
          "type": "uint8"
        },
        {
          "name": "blue",
          "type": "uint8"
        },
        {
          "name": "intensity",
          "type": "uint8"
        }
      ],
      "payable": false,
      "stateMutability": "view",
      "type": "function",
      "signature": "0x34ae3122"
    },
    {
      "anonymous": false,
      "inputs": [
        {
          "indexed": false,
          "name": "lightBulbId",
          "type": "uint256"
        },
        {
          "indexed": false,
          "name": "hash_id",
          "type": "string"
        },
        {
          "indexed": false,
          "name": "name",
          "type": "string"
        },
        {
          "indexed": false,
          "name": "description",
          "type": "string"
        },
        {
          "indexed": false,
          "name": "status",
          "type": "bool"
        },
        {
          "indexed": false,
          "name": "red",
          "type": "uint8"
        },
        {
          "indexed": false,
          "name": "green",
          "type": "uint8"
        },
        {
          "indexed": false,
          "name": "blue",
          "type": "uint8"
        },
        {
          "indexed": false,
          "name": "intensity",
          "type": "uint8"
        }
      ],
      "name": "NewLightBulb",
      "type": "event",
      "signature": "0x798df52e796c880b24a0014e56f7bc64a3affa750a98133eda11eff5acd5dcda"
    },
    {
      "anonymous": false,
      "inputs": [
        {
          "indexed": false,
          "name": "lightBulbId",
          "type": "uint256"
        },
        {
          "indexed": false,
          "name": "name",
          "type": "string"
        }
      ],
      "name": "NameChange",
      "type": "event",
      "signature": "0x7e632a301794d8d4a81ea7e20f37d1947158d36e66403af04ba85dd194b66f1b"
    },
    {
      "anonymous": false,
      "inputs": [
        {
          "indexed": false,
          "name": "lightBulbId",
          "type": "uint256"
        },
        {
          "indexed": false,
          "name": "description",
          "type": "string"
        }
      ],
      "name": "DescriptionChange",
      "type": "event",
      "signature": "0xc08f00439f67ede4cd3bf3516b07a5934614481602463c4c4ad2a0be58badf5c"
    },
    {
      "anonymous": false,
      "inputs": [
        {
          "indexed": false,
          "name": "lightBulbId",
          "type": "uint256"
        },
        {
          "indexed": false,
          "name": "status",
          "type": "bool"
        }
      ],
      "name": "StatusChange",
      "type": "event",
      "signature": "0xd47e073b3bafc2bf58ecf7e117d02c3248e5002d18bf028847943eebf065029f"
    },
    {
      "anonymous": false,
      "inputs": [
        {
          "indexed": false,
          "name": "lightBulbId",
          "type": "uint256"
        },
        {
          "indexed": false,
          "name": "red",
          "type": "uint8"
        },
        {
          "indexed": false,
          "name": "green",
          "type": "uint8"
        },
        {
          "indexed": false,
          "name": "blue",
          "type": "uint8"
        }
      ],
      "name": "ColorChange",
      "type": "event",
      "signature": "0x78ce14f04b5000cec77d6440103345091b850b9a01bd1d409fffcc6f54bf0c9f"
    },
    {
      "anonymous": false,
      "inputs": [
        {
          "indexed": false,
          "name": "lightBulbId",
          "type": "uint256"
        },
        {
          "indexed": false,
          "name": "intensity",
          "type": "uint8"
        }
      ],
      "name": "IntensityChange",
      "type": "event",
      "signature": "0xf6071595ec72fb58f420763b6bf2bbe7ad0836489e7fbaef2b52fc39e797074a"
    },
    {
      "constant": true,
      "inputs": [
        {
          "name": "_id",
          "type": "uint256"
        }
      ],
      "name": "fetchDeviceStatus",
      "outputs": [
        {
          "name": "_name",
          "type": "string"
        },
        {
          "name": "_description",
          "type": "string"
        },
        {
          "name": "_status",
          "type": "bool"
        },
        {
          "name": "_red",
          "type": "uint8"
        },
        {
          "name": "_green",
          "type": "uint8"
        },
        {
          "name": "_blue",
          "type": "uint8"
        },
        {
          "name": "_intensity",
          "type": "uint8"
        }
      ],
      "payable": false,
      "stateMutability": "view",
      "type": "function",
      "signature": "0x6bb68b86"
    },
    {
      "constant": true,
      "inputs": [],
      "name": "getNumberOfdevices",
      "outputs": [
        {
          "name": "",
          "type": "uint256"
        }
      ],
      "payable": false,
      "stateMutability": "view",
      "type": "function",
      "signature": "0x4dc4d0e5"
    },
    {
      "constant": false,
      "inputs": [
        {
          "name": "_name",
          "type": "string"
        },
        {
          "name": "_description",
          "type": "string"
        }
      ],
      "name": "_addNewLightBulb",
      "outputs": [],
      "payable": false,
      "stateMutability": "nonpayable",
      "type": "function",
      "signature": "0x8a9daf5e"
    },
    {
      "constant": false,
      "inputs": [
        {
          "name": "_lightBulbId",
          "type": "uint256"
        },
        {
          "name": "_name",
          "type": "string"
        }
      ],
      "name": "_changeName",
      "outputs": [],
      "payable": false,
      "stateMutability": "nonpayable",
      "type": "function",
      "signature": "0x4da89bfb"
    },
    {
      "constant": false,
      "inputs": [
        {
          "name": "_lightBulbId",
          "type": "uint256"
        },
        {
          "name": "_status",
          "type": "bool"
        }
      ],
      "name": "_changeStatus",
      "outputs": [],
      "payable": false,
      "stateMutability": "nonpayable",
      "type": "function",
      "signature": "0xc470af65"
    },
    {
      "constant": false,
      "inputs": [
        {
          "name": "_lightBulbId",
          "type": "uint256"
        },
        {
          "name": "_description",
          "type": "string"
        }
      ],
      "name": "_changeDescription",
      "outputs": [],
      "payable": false,
      "stateMutability": "nonpayable",
      "type": "function",
      "signature": "0x447f9992"
    },
    {
      "constant": false,
      "inputs": [
        {
          "name": "_lightBulbId",
          "type": "uint256"
        },
        {
          "name": "_red",
          "type": "uint8"
        },
        {
          "name": "_green",
          "type": "uint8"
        },
        {
          "name": "_blue",
          "type": "uint8"
        }
      ],
      "name": "_changeColor",
      "outputs": [],
      "payable": false,
      "stateMutability": "nonpayable",
      "type": "function",
      "signature": "0xed2d4ccc"
    },
    {
      "constant": false,
      "inputs": [
        {
          "name": "_lightBulbId",
          "type": "uint256"
        },
        {
          "name": "_intensity",
          "type": "uint8"
        }
      ],
      "name": "_changeIntensity",
      "outputs": [],
      "payable": false,
      "stateMutability": "nonpayable",
      "type": "function",
      "signature": "0x094be136"
    }
  ],
  "bytecode": "0x60806040526000805534801561001457600080fd5b50611ad4806100246000396000f3fe6080604052600436106100a4576000357c0100000000000000000000000000000000000000000000000000000000900463ffffffff168063094be136146100a95780630e951d69146100f157806334ae31221461016c578063447f9992146103375780634da89bfb146104095780634dc4d0e5146104db5780636bb68b86146105065780638a9daf5e14610665578063c470af65146107c4578063ed2d4ccc1461080b575b600080fd5b3480156100b557600080fd5b506100ef600480360360408110156100cc57600080fd5b8101908080359060200190929190803560ff16906020019092919050505061086d565b005b3480156100fd57600080fd5b5061012a6004803603602081101561011457600080fd5b810190808035906020019092919050505061095c565b604051808273ffffffffffffffffffffffffffffffffffffffff1673ffffffffffffffffffffffffffffffffffffffff16815260200191505060405180910390f35b34801561017857600080fd5b506101a56004803603602081101561018f57600080fd5b810190808035906020019092919050505061098f565b60405180806020018060200180602001891515151581526020018860ff1660ff1681526020018760ff1660ff1681526020018660ff1660ff1681526020018560ff1660ff16815260200184810384528c818151815260200191508051906020019080838360005b8381101561022757808201518184015260208101905061020c565b50505050905090810190601f1680156102545780820380516001836020036101000a031916815260200191505b5084810383528b818151815260200191508051906020019080838360005b8381101561028d578082015181840152602081019050610272565b50505050905090810190601f1680156102ba5780820380516001836020036101000a031916815260200191505b5084810382528a818151815260200191508051906020019080838360005b838110156102f35780820151818401526020810190506102d8565b50505050905090810190601f1680156103205780820380516001836020036101000a031916815260200191505b509b50505050505050505050505060405180910390f35b34801561034357600080fd5b506104076004803603604081101561035a57600080fd5b81019080803590602001909291908035906020019064010000000081111561038157600080fd5b82018360208201111561039357600080fd5b803590602001918460018302840111640100000000831117156103b557600080fd5b91908080601f016020809104026020016040519081016040528093929190818152602001838380828437600081840152601f19601f820116905080830192505050505050509192919290505050610bef565b005b34801561041557600080fd5b506104d96004803603604081101561042c57600080fd5b81019080803590602001909291908035906020019064010000000081111561045357600080fd5b82018360208201111561046557600080fd5b8035906020019184600183028401116401000000008311171561048757600080fd5b91908080601f016020809104026020016040519081016040528093929190818152602001838380828437600081840152601f19601f820116905080830192505050505050509192919290505050610d39565b005b3480156104e757600080fd5b506104f0610e83565b6040518082815260200191505060405180910390f35b34801561051257600080fd5b5061053f6004803603602081101561052957600080fd5b8101908080359060200190929190505050610e8c565b604051808060200180602001881515151581526020018760ff1660ff1681526020018660ff1660ff1681526020018560ff1660ff1681526020018460ff1660ff16815260200183810383528a818151815260200191508051906020019080838360005b838110156105bd5780820151818401526020810190506105a2565b50505050905090810190601f1680156105ea5780820380516001836020036101000a031916815260200191505b50838103825289818151815260200191508051906020019080838360005b83811015610623578082015181840152602081019050610608565b50505050905090810190601f1680156106505780820380516001836020036101000a031916815260200191505b50995050505050505050505060405180910390f35b34801561067157600080fd5b506107c26004803603604081101561068857600080fd5b81019080803590602001906401000000008111156106a557600080fd5b8201836020820111156106b757600080fd5b803590602001918460018302840111640100000000831117156106d957600080fd5b91908080601f016020809104026020016040519081016040528093929190818152602001838380828437600081840152601f19601f8201169050808301925050505050505091929192908035906020019064010000000081111561073c57600080fd5b82018360208201111561074e57600080fd5b8035906020019184600183028401116401000000008311171561077057600080fd5b91908080601f016020809104026020016040519081016040528093929190818152602001838380828437600081840152601f19601f82011690508083019250505050505050919291929050505061111d565b005b3480156107d057600080fd5b50610809600480360360408110156107e757600080fd5b81019080803590602001909291908035151590602001909291905050506115bf565b005b34801561081757600080fd5b5061086b6004803603608081101561082e57600080fd5b8101908080359060200190929190803560ff169060200190929190803560ff169060200190929190803560ff1690602001909291905050506116ab565b005b6002600083815260200190815260200160002060009054906101000a900473ffffffffffffffffffffffffffffffffffffffff1673ffffffffffffffffffffffffffffffffffffffff163373ffffffffffffffffffffffffffffffffffffffff161415156108da57600080fd5b806001838154811015156108ea57fe5b906000526020600020906004020160030160046101000a81548160ff021916908360ff1602179055507ff6071595ec72fb58f420763b6bf2bbe7ad0836489e7fbaef2b52fc39e797074a8282604051808381526020018260ff1660ff1681526020019250505060405180910390a15050565b60026020528060005260406000206000915054906101000a900473ffffffffffffffffffffffffffffffffffffffff1681565b60018181548110151561099e57fe5b9060005260206000209060040201600091509050806000018054600181600116156101000203166002900480601f016020809104026020016040519081016040528092919081815260200182805460018160011615610100020316600290048015610a4a5780601f10610a1f57610100808354040283529160200191610a4a565b820191906000526020600020905b815481529060010190602001808311610a2d57829003601f168201915b505050505090806001018054600181600116156101000203166002900480601f016020809104026020016040519081016040528092919081815260200182805460018160011615610100020316600290048015610ae85780601f10610abd57610100808354040283529160200191610ae8565b820191906000526020600020905b815481529060010190602001808311610acb57829003601f168201915b505050505090806002018054600181600116156101000203166002900480601f016020809104026020016040519081016040528092919081815260200182805460018160011615610100020316600290048015610b865780601f10610b5b57610100808354040283529160200191610b86565b820191906000526020600020905b815481529060010190602001808311610b6957829003601f168201915b5050505050908060030160009054906101000a900460ff16908060030160019054906101000a900460ff16908060030160029054906101000a900460ff16908060030160039054906101000a900460ff16908060030160049054906101000a900460ff16905088565b6002600083815260200190815260200160002060009054906101000a900473ffffffffffffffffffffffffffffffffffffffff1673ffffffffffffffffffffffffffffffffffffffff163373ffffffffffffffffffffffffffffffffffffffff16141515610c5c57600080fd5b80600183815481101515610c6c57fe5b90600052602060002090600402016002019080519060200190610c90929190611983565b507fc08f00439f67ede4cd3bf3516b07a5934614481602463c4c4ad2a0be58badf5c82826040518083815260200180602001828103825283818151815260200191508051906020019080838360005b83811015610cfa578082015181840152602081019050610cdf565b50505050905090810190601f168015610d275780820380516001836020036101000a031916815260200191505b50935050505060405180910390a15050565b6002600083815260200190815260200160002060009054906101000a900473ffffffffffffffffffffffffffffffffffffffff1673ffffffffffffffffffffffffffffffffffffffff163373ffffffffffffffffffffffffffffffffffffffff16141515610da657600080fd5b80600183815481101515610db657fe5b90600052602060002090600402016001019080519060200190610dda929190611983565b507f7e632a301794d8d4a81ea7e20f37d1947158d36e66403af04ba85dd194b66f1b82826040518083815260200180602001828103825283818151815260200191508051906020019080838360005b83811015610e44578082015181840152602081019050610e29565b50505050905090810190601f168015610e715780820380516001836020036101000a031916815260200191505b50935050505060405180910390a15050565b60008054905090565b6060806000806000806000600188815481101515610ea657fe5b90600052602060002090600402016001018054600181600116156101000203166002900480601f016020809104026020016040519081016040528092919081815260200182805460018160011615610100020316600290048015610f4b5780601f10610f2057610100808354040283529160200191610f4b565b820191906000526020600020905b815481529060010190602001808311610f2e57829003601f168201915b5050505050965086600189815481101515610f6257fe5b90600052602060002090600402016002018054600181600116156101000203166002900480601f0160208091040260200160405190810160405280929190818152602001828054600181600116156101000203166002900480156110075780601f10610fdc57610100808354040283529160200191611007565b820191906000526020600020905b815481529060010190602001808311610fea57829003601f168201915b505050505096508660018a81548110151561101e57fe5b906000526020600020906004020160030160009054906101000a900460ff1696508660018b81548110151561104f57fe5b906000526020600020906004020160030160019054906101000a900460ff1696508660018c81548110151561108057fe5b906000526020600020906004020160030160029054906101000a900460ff1696508660018d8154811015156110b157fe5b906000526020600020906004020160030160039054906101000a900460ff1696508660018e8154811015156110e257fe5b906000526020600020906004020160030160049054906101000a900460ff169650869650965096509650965096509650919395979092949650565b6000600180610100604051908101604052806040805190810160405280600581526020017f4c69625f58000000000000000000000000000000000000000000000000000000815250815260200186815260200185815260200160001515815260200160ff8016815260200160ff8016815260200160ff80168152602001606460ff168152509080600181540180825580915050906001820390600052602060002090600402016000909192909190915060008201518160000190805190602001906111e9929190611a03565b506020820151816001019080519060200190611206929190611a03565b506040820151816002019080519060200190611223929190611a03565b5060608201518160030160006101000a81548160ff02191690831515021790555060808201518160030160016101000a81548160ff021916908360ff16021790555060a08201518160030160026101000a81548160ff021916908360ff16021790555060c08201518160030160036101000a81548160ff021916908360ff16021790555060e08201518160030160046101000a81548160ff021916908360ff160217905550505003905060606112d88261182a565b60405160200180807f4c69625f0000000000000000000000000000000000000000000000000000000081525060040182805190602001908083835b6020831015156113385780518252602082019150602081019050602083039250611313565b6001836020036101000a03801982511681845116808217855250505050505090500191505060405160208183030381529060405290508060018381548110151561137e57fe5b906000526020600020906004020160000190805190602001906113a2929190611983565b5060018201600081905550336002600084815260200190815260200160002060006101000a81548173ffffffffffffffffffffffffffffffffffffffff021916908373ffffffffffffffffffffffffffffffffffffffff1602179055507f798df52e796c880b24a0014e56f7bc64a3affa750a98133eda11eff5acd5dcda82828686600060ff8060ff6064604051808a8152602001806020018060200180602001891515151581526020018860ff1681526020018760ff1681526020018660ff1681526020018560ff16815260200184810384528c818151815260200191508051906020019080838360005b838110156114a957808201518184015260208101905061148e565b50505050905090810190601f1680156114d65780820380516001836020036101000a031916815260200191505b5084810383528b818151815260200191508051906020019080838360005b8381101561150f5780820151818401526020810190506114f4565b50505050905090810190601f16801561153c5780820380516001836020036101000a031916815260200191505b5084810382528a818151815260200191508051906020019080838360005b8381101561157557808201518184015260208101905061155a565b50505050905090810190601f1680156115a25780820380516001836020036101000a031916815260200191505b509c5050505050505050505050505060405180910390a150505050565b6002600083815260200190815260200160002060009054906101000a900473ffffffffffffffffffffffffffffffffffffffff1673ffffffffffffffffffffffffffffffffffffffff163373ffffffffffffffffffffffffffffffffffffffff1614151561162c57600080fd5b8060018381548110151561163c57fe5b906000526020600020906004020160030160006101000a81548160ff0219169083151502179055507fd47e073b3bafc2bf58ecf7e117d02c3248e5002d18bf028847943eebf065029f828260405180838152602001821515151581526020019250505060405180910390a15050565b6002600085815260200190815260200160002060009054906101000a900473ffffffffffffffffffffffffffffffffffffffff1673ffffffffffffffffffffffffffffffffffffffff163373ffffffffffffffffffffffffffffffffffffffff1614151561171857600080fd5b8260018581548110151561172857fe5b906000526020600020906004020160030160016101000a81548160ff021916908360ff1602179055508160018581548110151561176157fe5b906000526020600020906004020160030160026101000a81548160ff021916908360ff1602179055508060018581548110151561179a57fe5b906000526020600020906004020160030160026101000a81548160ff021916908360ff1602179055507f78ce14f04b5000cec77d6440103345091b850b9a01bd1d409fffcc6f54bf0c9f84848484604051808581526020018460ff1660ff1681526020018360ff1660ff1681526020018260ff1660ff16815260200194505050505060405180910390a150505050565b60606000821415611872576040805190810160405280600181526020017f3000000000000000000000000000000000000000000000000000000000000000815250905061197e565b600082905060005b6000821415156118a0578080600101915050600a8281151561189857fe5b04915061187a565b6060816040519080825280601f01601f1916602001820160405280156118d55781602001600182028038833980820191505090505b50905060006001830390505b60008614151561197657600a868115156118f757fe5b066030017f01000000000000000000000000000000000000000000000000000000000000000282828060019003935081518110151561193257fe5b9060200101907effffffffffffffffffffffffffffffffffffffffffffffffffffffffffffff1916908160001a905350600a8681151561196e57fe5b0495506118e1565b819450505050505b919050565b828054600181600116156101000203166002900490600052602060002090601f016020900481019282601f106119c457805160ff19168380011785556119f2565b828001600101855582156119f2579182015b828111156119f15782518255916020019190600101906119d6565b5b5090506119ff9190611a83565b5090565b828054600181600116156101000203166002900490600052602060002090601f016020900481019282601f10611a4457805160ff1916838001178555611a72565b82800160010185558215611a72579182015b82811115611a71578251825591602001919060010190611a56565b5b509050611a7f9190611a83565b5090565b611aa591905b80821115611aa1576000816000905550600101611a89565b5090565b9056fea165627a7a72305820f5fe692467cb85de8a306b2fe18aa29bde58798e327362712d6dc3db81c7a5450029",
  "source": "pragma solidity ^0.5.0;\n\ncontract LightBulbs {\n\n  event NewLightBulb(uint lightBulbId, string hash_id, string name, string description, bool status, uint8 red, uint8 green, uint8 blue, uint8 intensity);\n  event NameChange(uint lightBulbId, string name);\n  event DescriptionChange(uint lightBulbId, string description);\n  event StatusChange(uint lightBulbId, bool status);\n  event ColorChange(uint lightBulbId, uint8 red, uint8 green, uint8 blue);\n  event IntensityChange(uint lightBulbId, uint8 intensity);\n\n  struct LightBulb {\n    string hash_id; //in format Lib_1\n    string name; // front door \n    string description; // for plug -> what to, where\n    bool status; // true/false = on/off\n    uint8 red; // 0-255\n    uint8 green;\n    uint8 blue;\n    uint8 intensity; // 0-100\n  }\n\n  uint deviceCounter = 0;\n\n  LightBulb[] public lightBulbs;\n\n  mapping (uint => address) public lightBulbToOwner;\n\n  // fetch a device's status\n  function fetchDeviceStatus(uint256 _id) external view returns (\n    string memory _name,\n    string memory _description,\n    bool _status, // true/false = on/off\n    uint8 _red, // 0-255\n    uint8 _green,\n    uint8 _blue,\n    uint8 _intensity // 0-100\n    ) {\n    return (\n    _name = lightBulbs[_id].name,\n    _description = lightBulbs[_id].description,\n    _status = lightBulbs[_id].status,\n    _red = lightBulbs[_id].red,\n    _green = lightBulbs[_id].green,\n    _blue = lightBulbs[_id].blue,\n    _intensity = lightBulbs[_id].intensity\n    );\n  }\n\n  // fetch the number of  deviceslist in the contract\n  function getNumberOfdevices() public view returns (uint) {\n    return  deviceCounter;\n  }\n\n  function uint2str(uint _i) internal pure returns (string memory _uintAsString) {\n    if (_i == 0) {\n        return \"0\";\n    }\n    uint j = _i;\n    uint len;\n    while (j != 0) {\n        len++;\n        j /= 10;\n    }\n    bytes memory bstr = new bytes(len);\n    uint k = len - 1;\n    while (_i != 0) {\n        bstr[k--] = byte(uint8(48 + _i % 10));\n        _i /= 10;\n    }\n    return string(bstr);\n  }\n\n  // Add a new device\n  function _addNewLightBulb(string memory _name, string memory _description) public {\n      uint _id = lightBulbs.push(LightBulb(\"Lib_X\", _name, _description, false, 255, 255, 255, 100)) - 1;\n      string memory _hash_id = string(abi.encodePacked(\"Lib_\", uint2str(_id)));\n      lightBulbs[_id].hash_id = _hash_id;\n      deviceCounter = _id+1;\n\n      lightBulbToOwner[_id] = msg.sender;\n      emit NewLightBulb(_id, _hash_id, _name, _description, false, 255, 255, 255, 100);\n  }\n\n  // All changes\n  function _changeName(uint _lightBulbId, string memory _name) public {\n      require(msg.sender == lightBulbToOwner[_lightBulbId]);\n      lightBulbs[_lightBulbId].name = _name;\n      emit NameChange(_lightBulbId, _name);\n  }\n\n  function _changeStatus(uint _lightBulbId, bool _status) public {\n      require(msg.sender == lightBulbToOwner[_lightBulbId]);\n      lightBulbs[_lightBulbId].status = _status;\n      emit StatusChange(_lightBulbId, _status);\n  }\n\n  function _changeDescription(uint _lightBulbId, string memory _description) public {\n      require(msg.sender == lightBulbToOwner[_lightBulbId]);\n      lightBulbs[_lightBulbId].description = _description;\n      emit DescriptionChange(_lightBulbId, _description);\n  }\n\n  function _changeColor(uint _lightBulbId, uint8 _red, uint8 _green, uint8 _blue) public {\n      require(msg.sender == lightBulbToOwner[_lightBulbId]);\n      lightBulbs[_lightBulbId].red = _red;\n      lightBulbs[_lightBulbId].green = _green;\n      lightBulbs[_lightBulbId].green = _blue;\n      emit ColorChange(_lightBulbId, _red, _green, _blue);\n  }\n\n  function _changeIntensity(uint _lightBulbId, uint8 _intensity) public {\n      require(msg.sender == lightBulbToOwner[_lightBulbId]);\n      lightBulbs[_lightBulbId].intensity = _intensity;\n      emit IntensityChange(_lightBulbId, _intensity);\n  }\n\n} // end of contract\n",
  "sourcePath": "/Users/mac/ChainSkills/Training/chainlist/contracts/LightBulbs.sol",
  "compiler": {
    "name": "solc",
    "version": "0.5.0+commit.1d4f565a.Emscripten.clang"
  },
  "schemaVersion": "3.0.6",
  "updatedAt": "2019-04-10T06:37:34.573Z",
  "devdoc": {
    "methods": {}
  },
  "userdoc": {
    "methods": {}
  }
}