{
  "contractName": "ElectricPlugs",
  "abi": [
    {
      "constant": true,
      "inputs": [
        {
          "name": "",
          "type": "uint256"
        }
      ],
      "name": "electricPlugs",
      "outputs": [
        {
          "name": "name",
          "type": "string"
        },
        {
          "name": "description",
          "type": "string"
        },
        {
          "name": "status",
          "type": "bool"
        }
      ],
      "payable": false,
      "stateMutability": "view",
      "type": "function",
      "signature": "0x31420396"
    },
    {
      "constant": true,
      "inputs": [
        {
          "name": "",
          "type": "uint256"
        }
      ],
      "name": "electricPlugToOwner",
      "outputs": [
        {
          "name": "",
          "type": "address"
        }
      ],
      "payable": false,
      "stateMutability": "view",
      "type": "function",
      "signature": "0xc7c7781d"
    },
    {
      "anonymous": false,
      "inputs": [
        {
          "indexed": false,
          "name": "electricPlugId",
          "type": "uint256"
        },
        {
          "indexed": false,
          "name": "name",
          "type": "string"
        },
        {
          "indexed": false,
          "name": "description",
          "type": "string"
        },
        {
          "indexed": false,
          "name": "status",
          "type": "bool"
        }
      ],
      "name": "NewElectricPlug",
      "type": "event",
      "signature": "0xb71a9cc65232f5d05dc0d13d117322aab7f6047cbf844cb2b42d3b3a87184bae"
    },
    {
      "anonymous": false,
      "inputs": [
        {
          "indexed": false,
          "name": "electricPlugId",
          "type": "uint256"
        },
        {
          "indexed": false,
          "name": "name",
          "type": "string"
        }
      ],
      "name": "NameChange",
      "type": "event",
      "signature": "0x7e632a301794d8d4a81ea7e20f37d1947158d36e66403af04ba85dd194b66f1b"
    },
    {
      "anonymous": false,
      "inputs": [
        {
          "indexed": false,
          "name": "electricPlugId",
          "type": "uint256"
        },
        {
          "indexed": false,
          "name": "description",
          "type": "string"
        }
      ],
      "name": "DescriptionChange",
      "type": "event",
      "signature": "0xc08f00439f67ede4cd3bf3516b07a5934614481602463c4c4ad2a0be58badf5c"
    },
    {
      "anonymous": false,
      "inputs": [
        {
          "indexed": false,
          "name": "electricPlugId",
          "type": "uint256"
        },
        {
          "indexed": false,
          "name": "name",
          "type": "string"
        },
        {
          "indexed": false,
          "name": "description",
          "type": "string"
        },
        {
          "indexed": false,
          "name": "status",
          "type": "bool"
        }
      ],
      "name": "StatusChange",
      "type": "event",
      "signature": "0x697ea88b89368b211ea3ebd60b24b36afa15767b9ed4656716e64e317ca26fe0"
    },
    {
      "constant": false,
      "inputs": [
        {
          "name": "_name",
          "type": "string"
        },
        {
          "name": "_description",
          "type": "string"
        }
      ],
      "name": "_addElectricPlug",
      "outputs": [],
      "payable": false,
      "stateMutability": "nonpayable",
      "type": "function",
      "signature": "0xcb25eaed"
    },
    {
      "constant": false,
      "inputs": [
        {
          "name": "_electricPlugId",
          "type": "uint256"
        },
        {
          "name": "_name",
          "type": "string"
        }
      ],
      "name": "_changeName",
      "outputs": [],
      "payable": false,
      "stateMutability": "nonpayable",
      "type": "function",
      "signature": "0x4da89bfb"
    },
    {
      "constant": false,
      "inputs": [
        {
          "name": "_electricPlugId",
          "type": "uint256"
        },
        {
          "name": "_description",
          "type": "string"
        }
      ],
      "name": "_changeDescription",
      "outputs": [],
      "payable": false,
      "stateMutability": "nonpayable",
      "type": "function",
      "signature": "0x447f9992"
    },
    {
      "constant": false,
      "inputs": [
        {
          "name": "_electricplugId",
          "type": "uint256"
        },
        {
          "name": "_status",
          "type": "bool"
        }
      ],
      "name": "_changeStatus",
      "outputs": [],
      "payable": false,
      "stateMutability": "nonpayable",
      "type": "function",
      "signature": "0xc470af65"
    }
  ],
  "bytecode": "0x608060405234801561001057600080fd5b50611061806100206000396000f3fe608060405260043610610078576000357c0100000000000000000000000000000000000000000000000000000000900463ffffffff168063314203961461007d578063447f9992146101a85780634da89bfb1461027a578063c470af651461034c578063c7c7781d14610393578063cb25eaed1461040e575b600080fd5b34801561008957600080fd5b506100b6600480360360208110156100a057600080fd5b810190808035906020019092919050505061056d565b60405180806020018060200184151515158152602001838103835286818151815260200191508051906020019080838360005b838110156101045780820151818401526020810190506100e9565b50505050905090810190601f1680156101315780820380516001836020036101000a031916815260200191505b50838103825285818151815260200191508051906020019080838360005b8381101561016a57808201518184015260208101905061014f565b50505050905090810190601f1680156101975780820380516001836020036101000a031916815260200191505b509550505050505060405180910390f35b3480156101b457600080fd5b50610278600480360360408110156101cb57600080fd5b8101908080359060200190929190803590602001906401000000008111156101f257600080fd5b82018360208201111561020457600080fd5b8035906020019184600183028401116401000000008311171561022657600080fd5b91908080601f016020809104026020016040519081016040528093929190818152602001838380828437600081840152601f19601f8201169050808301925050505050505091929192905050506106e3565b005b34801561028657600080fd5b5061034a6004803603604081101561029d57600080fd5b8101908080359060200190929190803590602001906401000000008111156102c457600080fd5b8201836020820111156102d657600080fd5b803590602001918460018302840111640100000000831117156102f857600080fd5b91908080601f016020809104026020016040519081016040528093929190818152602001838380828437600081840152601f19601f82011690508083019250505050505050919291929050505061082d565b005b34801561035857600080fd5b506103916004803603604081101561036f57600080fd5b8101908080359060200190929190803515159060200190929190505050610977565b005b34801561039f57600080fd5b506103cc600480360360208110156103b657600080fd5b8101908080359060200190929190505050610cb9565b604051808273ffffffffffffffffffffffffffffffffffffffff1673ffffffffffffffffffffffffffffffffffffffff16815260200191505060405180910390f35b34801561041a57600080fd5b5061056b6004803603604081101561043157600080fd5b810190808035906020019064010000000081111561044e57600080fd5b82018360208201111561046057600080fd5b8035906020019184600183028401116401000000008311171561048257600080fd5b91908080601f016020809104026020016040519081016040528093929190818152602001838380828437600081840152601f19601f820116905080830192505050505050509192919290803590602001906401000000008111156104e557600080fd5b8201836020820111156104f757600080fd5b8035906020019184600183028401116401000000008311171561051957600080fd5b91908080601f016020809104026020016040519081016040528093929190818152602001838380828437600081840152601f19601f820116905080830192505050505050509192919290505050610cec565b005b60008181548110151561057c57fe5b9060005260206000209060030201600091509050806000018054600181600116156101000203166002900480601f0160208091040260200160405190810160405280929190818152602001828054600181600116156101000203166002900480156106285780601f106105fd57610100808354040283529160200191610628565b820191906000526020600020905b81548152906001019060200180831161060b57829003601f168201915b505050505090806001018054600181600116156101000203166002900480601f0160208091040260200160405190810160405280929190818152602001828054600181600116156101000203166002900480156106c65780601f1061069b576101008083540402835291602001916106c6565b820191906000526020600020905b8154815290600101906020018083116106a957829003601f168201915b5050505050908060020160009054906101000a900460ff16905083565b6001600083815260200190815260200160002060009054906101000a900473ffffffffffffffffffffffffffffffffffffffff1673ffffffffffffffffffffffffffffffffffffffff163373ffffffffffffffffffffffffffffffffffffffff1614151561075057600080fd5b8060008381548110151561076057fe5b90600052602060002090600302016001019080519060200190610784929190610f10565b507fc08f00439f67ede4cd3bf3516b07a5934614481602463c4c4ad2a0be58badf5c82826040518083815260200180602001828103825283818151815260200191508051906020019080838360005b838110156107ee5780820151818401526020810190506107d3565b50505050905090810190601f16801561081b5780820380516001836020036101000a031916815260200191505b50935050505060405180910390a15050565b6001600083815260200190815260200160002060009054906101000a900473ffffffffffffffffffffffffffffffffffffffff1673ffffffffffffffffffffffffffffffffffffffff163373ffffffffffffffffffffffffffffffffffffffff1614151561089a57600080fd5b806000838154811015156108aa57fe5b906000526020600020906003020160000190805190602001906108ce929190610f10565b507f7e632a301794d8d4a81ea7e20f37d1947158d36e66403af04ba85dd194b66f1b82826040518083815260200180602001828103825283818151815260200191508051906020019080838360005b8381101561093857808201518184015260208101905061091d565b50505050905090810190601f1680156109655780820380516001836020036101000a031916815260200191505b50935050505060405180910390a15050565b6001600083815260200190815260200160002060009054906101000a900473ffffffffffffffffffffffffffffffffffffffff1673ffffffffffffffffffffffffffffffffffffffff163373ffffffffffffffffffffffffffffffffffffffff161415156109e457600080fd5b806000838154811015156109f457fe5b906000526020600020906003020160020160006101000a81548160ff0219169083151502179055506060600083815481101515610a2d57fe5b90600052602060002090600302016000018054600181600116156101000203166002900480601f016020809104026020016040519081016040528092919081815260200182805460018160011615610100020316600290048015610ad25780601f10610aa757610100808354040283529160200191610ad2565b820191906000526020600020905b815481529060010190602001808311610ab557829003601f168201915b505050505090506060600084815481101515610aea57fe5b90600052602060002090600302016001018054600181600116156101000203166002900480601f016020809104026020016040519081016040528092919081815260200182805460018160011615610100020316600290048015610b8f5780601f10610b6457610100808354040283529160200191610b8f565b820191906000526020600020905b815481529060010190602001808311610b7257829003601f168201915b505050505090507f697ea88b89368b211ea3ebd60b24b36afa15767b9ed4656716e64e317ca26fe08483838660405180858152602001806020018060200184151515158152602001838103835286818151815260200191508051906020019080838360005b83811015610c0f578082015181840152602081019050610bf4565b50505050905090810190601f168015610c3c5780820380516001836020036101000a031916815260200191505b50838103825285818151815260200191508051906020019080838360005b83811015610c75578082015181840152602081019050610c5a565b50505050905090810190601f168015610ca25780820380516001836020036101000a031916815260200191505b50965050505050505060405180910390a150505050565b60016020528060005260406000206000915054906101000a900473ffffffffffffffffffffffffffffffffffffffff1681565b60006001600060606040519081016040528086815260200185815260200160001515815250908060018154018082558091505090600182039060005260206000209060030201600090919290919091506000820151816000019080519060200190610d58929190610f90565b506020820151816001019080519060200190610d75929190610f90565b5060408201518160020160006101000a81548160ff0219169083151502179055505050039050336001600083815260200190815260200160002060006101000a81548173ffffffffffffffffffffffffffffffffffffffff021916908373ffffffffffffffffffffffffffffffffffffffff1602179055507fb71a9cc65232f5d05dc0d13d117322aab7f6047cbf844cb2b42d3b3a87184bae818484600060405180858152602001806020018060200184151515158152602001838103835286818151815260200191508051906020019080838360005b83811015610e67578082015181840152602081019050610e4c565b50505050905090810190601f168015610e945780820380516001836020036101000a031916815260200191505b50838103825285818151815260200191508051906020019080838360005b83811015610ecd578082015181840152602081019050610eb2565b50505050905090810190601f168015610efa5780820380516001836020036101000a031916815260200191505b50965050505050505060405180910390a1505050565b828054600181600116156101000203166002900490600052602060002090601f016020900481019282601f10610f5157805160ff1916838001178555610f7f565b82800160010185558215610f7f579182015b82811115610f7e578251825591602001919060010190610f63565b5b509050610f8c9190611010565b5090565b828054600181600116156101000203166002900490600052602060002090601f016020900481019282601f10610fd157805160ff1916838001178555610fff565b82800160010185558215610fff579182015b82811115610ffe578251825591602001919060010190610fe3565b5b50905061100c9190611010565b5090565b61103291905b8082111561102e576000816000905550600101611016565b5090565b9056fea165627a7a72305820112918e3f1d954fba1c00ec7922dad5ec56287130dfad298cda3efea40897a9a0029",
  "source": "pragma solidity ^0.5.0;\n\ncontract ElectricPlugs {\n\n    event NewElectricPlug(uint electricPlugId, string name, string description, bool status);\n    event NameChange(uint electricPlugId, string name);\n    event DescriptionChange(uint electricPlugId, string description);\n    // FIXME: this event should only return id and status\n    event StatusChange(uint electricPlugId, string name, string description, bool status);\n\n    struct ElectricPlug {\n        string name; // front door \n        string description; // for plug -> what to, where\n        bool status; // true/false = on/off\n    }\n\n    ElectricPlug[] public electricPlugs;\n\n    mapping (uint => address) public electricPlugToOwner;\n\n    function _addElectricPlug(string memory _name, string memory _description) public {\n        uint _id = electricPlugs.push(ElectricPlug(_name, _description, false)) - 1;\n        electricPlugToOwner[_id] = msg.sender;\n        emit NewElectricPlug(_id, _name, _description, false);\n    }\n\n    function _changeName(uint _electricPlugId, string memory _name) public {\n        require(msg.sender == electricPlugToOwner[_electricPlugId]);\n        electricPlugs[_electricPlugId].name = _name;\n        emit NameChange(_electricPlugId, _name);\n    }\n\n    function _changeDescription(uint _electricPlugId, string memory _description) public {\n        require(msg.sender == electricPlugToOwner[_electricPlugId]);\n        electricPlugs[_electricPlugId].description = _description;\n        emit DescriptionChange(_electricPlugId, _description);\n    }\n\n    function _changeStatus(uint _electricplugId, bool _status) public {\n        require(msg.sender == electricPlugToOwner[_electricplugId]);\n        electricPlugs[_electricplugId].status = _status;\n        // FIXME: this event should only return id and status\n        string memory _name = electricPlugs[_electricplugId].name;\n        string memory _description = electricPlugs[_electricplugId].description;\n        emit StatusChange(_electricplugId, _name, _description, _status);\n    }\n} ",
  "sourcePath": "/ethdata/truffle/contracts/ElectricPlugs.sol",
  "compiler": {
    "name": "solc",
    "version": "0.5.0+commit.1d4f565a.Emscripten.clang"
  },
  "schemaVersion": "3.0.6",
  "updatedAt": "2019-04-08T13:52:55.443Z",
  "devdoc": {
    "methods": {}
  },
  "userdoc": {
    "methods": {}
  }
}