{
  "contractName": "Hello",
  "abi": [
    {
      "constant": true,
      "inputs": [],
      "name": "message",
      "outputs": [
        {
          "name": "",
          "type": "string"
        }
      ],
      "payable": false,
      "stateMutability": "view",
      "type": "function",
      "signature": "0xe21f37ce"
    },
    {
      "anonymous": false,
      "inputs": [
        {
          "indexed": false,
          "name": "_message",
          "type": "string"
        }
      ],
      "name": "SayHello",
      "type": "event",
      "signature": "0x0739fb87028724ed02772f820b543201662e37d0701527efe0b952cba64926c2"
    },
    {
      "constant": false,
      "inputs": [],
      "name": "HelloWorld",
      "outputs": [],
      "payable": false,
      "stateMutability": "nonpayable",
      "type": "function",
      "signature": "0x7fffb7bd"
    }
  ],
  "bytecode": "0x608060405234801561001057600080fd5b506103bc806100206000396000f3fe60806040526004361061004c576000357c0100000000000000000000000000000000000000000000000000000000900463ffffffff1680637fffb7bd14610051578063e21f37ce14610068575b600080fd5b34801561005d57600080fd5b506100666100f8565b005b34801561007457600080fd5b5061007d61024d565b6040518080602001828103825283818151815260200191508051906020019080838360005b838110156100bd5780820151818401526020810190506100a2565b50505050905090810190601f1680156100ea5780820380516001836020036101000a031916815260200191505b509250505060405180910390f35b608060405190810160405280605481526020017f48656c6c6f2c20576f726c64203a2054686973206973206120536f6c6964697481526020017f7920536d61727420436f6e7472616374206f6e2074686520507269766174652081526020017f457468657265756d20426c6f636b636861696e20000000000000000000000000815250600090805190602001906101909291906102eb565b507f0739fb87028724ed02772f820b543201662e37d0701527efe0b952cba64926c26000604051808060200182810382528381815460018160011615610100020316600290048152602001915080546001816001161561010002031660029004801561023d5780601f106102125761010080835404028352916020019161023d565b820191906000526020600020905b81548152906001019060200180831161022057829003601f168201915b50509250505060405180910390a1565b60008054600181600116156101000203166002900480601f0160208091040260200160405190810160405280929190818152602001828054600181600116156101000203166002900480156102e35780601f106102b8576101008083540402835291602001916102e3565b820191906000526020600020905b8154815290600101906020018083116102c657829003601f168201915b505050505081565b828054600181600116156101000203166002900490600052602060002090601f016020900481019282601f1061032c57805160ff191683800117855561035a565b8280016001018555821561035a579182015b8281111561035957825182559160200191906001019061033e565b5b509050610367919061036b565b5090565b61038d91905b80821115610389576000816000905550600101610371565b5090565b9056fea165627a7a72305820f71190d1dfadf040bb804c35d0c39e7600e97310e5b637df882a890d05332d060029",
  "source": "pragma solidity ^0.5.0;\ncontract Hello {\n  event SayHello(string _message);\n\n  string public message;\n\n  function HelloWorld() public {\n    message = \"Hello, World : This is a Solidity Smart Contract on the Private Ethereum Blockchain \";\n    emit SayHello(message);\n  }\n}",
  "sourcePath": "/Users/kainguyen/ethdata/contracts/Hello.sol",
  "compiler": {
    "name": "solc",
    "version": "0.5.0+commit.1d4f565a.Emscripten.clang"
  },
  "schemaVersion": "3.0.6",
  "updatedAt": "2019-04-10T14:18:52.353Z",
  "devdoc": {
    "methods": {}
  },
  "userdoc": {
    "methods": {}
  }
}