{
  "contractName": "LightBulbs",
  "abi": [
    {
      "constant": true,
      "inputs": [
        {
          "name": "",
          "type": "uint256"
        }
      ],
      "name": "lightBulbToOwner",
      "outputs": [
        {
          "name": "",
          "type": "address"
        }
      ],
      "payable": false,
      "stateMutability": "view",
      "type": "function",
      "signature": "0x0e951d69"
    },
    {
      "constant": true,
      "inputs": [
        {
          "name": "",
          "type": "uint256"
        }
      ],
      "name": "lightBulbs",
      "outputs": [
        {
          "name": "name",
          "type": "string"
        },
        {
          "name": "description",
          "type": "string"
        },
        {
          "name": "status",
          "type": "bool"
        },
        {
          "name": "red",
          "type": "uint8"
        },
        {
          "name": "green",
          "type": "uint8"
        },
        {
          "name": "blue",
          "type": "uint8"
        },
        {
          "name": "intensity",
          "type": "uint8"
        }
      ],
      "payable": false,
      "stateMutability": "view",
      "type": "function",
      "signature": "0x34ae3122"
    },
    {
      "anonymous": false,
      "inputs": [
        {
          "indexed": false,
          "name": "lightBulbId",
          "type": "uint256"
        },
        {
          "indexed": false,
          "name": "name",
          "type": "string"
        },
        {
          "indexed": false,
          "name": "description",
          "type": "string"
        },
        {
          "indexed": false,
          "name": "status",
          "type": "bool"
        },
        {
          "indexed": false,
          "name": "red",
          "type": "uint8"
        },
        {
          "indexed": false,
          "name": "green",
          "type": "uint8"
        },
        {
          "indexed": false,
          "name": "blue",
          "type": "uint8"
        },
        {
          "indexed": false,
          "name": "intensity",
          "type": "uint8"
        }
      ],
      "name": "NewLightBulb",
      "type": "event",
      "signature": "0x4027b9abf36e7ff08fd10ad61c3779fd0ca10b982df98fb7e3603438fbc886e9"
    },
    {
      "anonymous": false,
      "inputs": [
        {
          "indexed": false,
          "name": "lightBulbId",
          "type": "uint256"
        },
        {
          "indexed": false,
          "name": "name",
          "type": "string"
        }
      ],
      "name": "NameChange",
      "type": "event",
      "signature": "0x7e632a301794d8d4a81ea7e20f37d1947158d36e66403af04ba85dd194b66f1b"
    },
    {
      "anonymous": false,
      "inputs": [
        {
          "indexed": false,
          "name": "lightBulbId",
          "type": "uint256"
        },
        {
          "indexed": false,
          "name": "description",
          "type": "string"
        }
      ],
      "name": "DescriptionChange",
      "type": "event",
      "signature": "0xc08f00439f67ede4cd3bf3516b07a5934614481602463c4c4ad2a0be58badf5c"
    },
    {
      "anonymous": false,
      "inputs": [
        {
          "indexed": false,
          "name": "lightBulbId",
          "type": "uint256"
        },
        {
          "indexed": false,
          "name": "status",
          "type": "bool"
        }
      ],
      "name": "StatusChange",
      "type": "event",
      "signature": "0xd47e073b3bafc2bf58ecf7e117d02c3248e5002d18bf028847943eebf065029f"
    },
    {
      "anonymous": false,
      "inputs": [
        {
          "indexed": false,
          "name": "lightBulbId",
          "type": "uint256"
        },
        {
          "indexed": false,
          "name": "red",
          "type": "uint8"
        },
        {
          "indexed": false,
          "name": "green",
          "type": "uint8"
        },
        {
          "indexed": false,
          "name": "blue",
          "type": "uint8"
        }
      ],
      "name": "ColorChange",
      "type": "event",
      "signature": "0x78ce14f04b5000cec77d6440103345091b850b9a01bd1d409fffcc6f54bf0c9f"
    },
    {
      "anonymous": false,
      "inputs": [
        {
          "indexed": false,
          "name": "lightBulbId",
          "type": "uint256"
        },
        {
          "indexed": false,
          "name": "intensity",
          "type": "uint8"
        }
      ],
      "name": "IntensityChange",
      "type": "event",
      "signature": "0xf6071595ec72fb58f420763b6bf2bbe7ad0836489e7fbaef2b52fc39e797074a"
    },
    {
      "constant": false,
      "inputs": [
        {
          "name": "_name",
          "type": "string"
        },
        {
          "name": "_description",
          "type": "string"
        }
      ],
      "name": "_addNewLightBulb",
      "outputs": [],
      "payable": false,
      "stateMutability": "nonpayable",
      "type": "function",
      "signature": "0x8a9daf5e"
    },
    {
      "constant": false,
      "inputs": [
        {
          "name": "_lightBulbId",
          "type": "uint256"
        },
        {
          "name": "_name",
          "type": "string"
        }
      ],
      "name": "_changeName",
      "outputs": [],
      "payable": false,
      "stateMutability": "nonpayable",
      "type": "function",
      "signature": "0x4da89bfb"
    },
    {
      "constant": false,
      "inputs": [
        {
          "name": "_lightBulbId",
          "type": "uint256"
        },
        {
          "name": "_status",
          "type": "bool"
        }
      ],
      "name": "_changeStatus",
      "outputs": [],
      "payable": false,
      "stateMutability": "nonpayable",
      "type": "function",
      "signature": "0xc470af65"
    },
    {
      "constant": false,
      "inputs": [
        {
          "name": "_lightBulbId",
          "type": "uint256"
        },
        {
          "name": "_description",
          "type": "string"
        }
      ],
      "name": "_changeDescription",
      "outputs": [],
      "payable": false,
      "stateMutability": "nonpayable",
      "type": "function",
      "signature": "0x447f9992"
    },
    {
      "constant": false,
      "inputs": [
        {
          "name": "_lightBulbId",
          "type": "uint256"
        },
        {
          "name": "_red",
          "type": "uint8"
        },
        {
          "name": "_green",
          "type": "uint8"
        },
        {
          "name": "_blue",
          "type": "uint8"
        }
      ],
      "name": "_changeColor",
      "outputs": [],
      "payable": false,
      "stateMutability": "nonpayable",
      "type": "function",
      "signature": "0xed2d4ccc"
    },
    {
      "constant": false,
      "inputs": [
        {
          "name": "_lightBulbId",
          "type": "uint256"
        },
        {
          "name": "_intensity",
          "type": "uint8"
        }
      ],
      "name": "_changeIntensity",
      "outputs": [],
      "payable": false,
      "stateMutability": "nonpayable",
      "type": "function",
      "signature": "0x094be136"
    }
  ],
  "bytecode": "0x608060405234801561001057600080fd5b50611291806100206000396000f3fe60806040526004361061008e576000357c0100000000000000000000000000000000000000000000000000000000900463ffffffff168063094be136146100935780630e951d69146100db57806334ae312214610156578063447f9992146102b55780634da89bfb146103875780638a9daf5e14610459578063c470af65146105b8578063ed2d4ccc146105ff575b600080fd5b34801561009f57600080fd5b506100d9600480360360408110156100b657600080fd5b8101908080359060200190929190803560ff169060200190929190505050610661565b005b3480156100e757600080fd5b50610114600480360360208110156100fe57600080fd5b8101908080359060200190929190505050610750565b604051808273ffffffffffffffffffffffffffffffffffffffff1673ffffffffffffffffffffffffffffffffffffffff16815260200191505060405180910390f35b34801561016257600080fd5b5061018f6004803603602081101561017957600080fd5b8101908080359060200190929190505050610783565b604051808060200180602001881515151581526020018760ff1660ff1681526020018660ff1660ff1681526020018560ff1660ff1681526020018460ff1660ff16815260200183810383528a818151815260200191508051906020019080838360005b8381101561020d5780820151818401526020810190506101f2565b50505050905090810190601f16801561023a5780820380516001836020036101000a031916815260200191505b50838103825289818151815260200191508051906020019080838360005b83811015610273578082015181840152602081019050610258565b50505050905090810190601f1680156102a05780820380516001836020036101000a031916815260200191505b50995050505050505050505060405180910390f35b3480156102c157600080fd5b50610385600480360360408110156102d857600080fd5b8101908080359060200190929190803590602001906401000000008111156102ff57600080fd5b82018360208201111561031157600080fd5b8035906020019184600183028401116401000000008311171561033357600080fd5b91908080601f016020809104026020016040519081016040528093929190818152602001838380828437600081840152601f19601f820116905080830192505050505050509192919290505050610945565b005b34801561039357600080fd5b50610457600480360360408110156103aa57600080fd5b8101908080359060200190929190803590602001906401000000008111156103d157600080fd5b8201836020820111156103e357600080fd5b8035906020019184600183028401116401000000008311171561040557600080fd5b91908080601f016020809104026020016040519081016040528093929190818152602001838380828437600081840152601f19601f820116905080830192505050505050509192919290505050610a8f565b005b34801561046557600080fd5b506105b66004803603604081101561047c57600080fd5b810190808035906020019064010000000081111561049957600080fd5b8201836020820111156104ab57600080fd5b803590602001918460018302840111640100000000831117156104cd57600080fd5b91908080601f016020809104026020016040519081016040528093929190818152602001838380828437600081840152601f19601f8201169050808301925050505050505091929192908035906020019064010000000081111561053057600080fd5b82018360208201111561054257600080fd5b8035906020019184600183028401116401000000008311171561056457600080fd5b91908080601f016020809104026020016040519081016040528093929190818152602001838380828437600081840152601f19601f820116905080830192505050505050509192919290505050610bd9565b005b3480156105c457600080fd5b506105fd600480360360408110156105db57600080fd5b8101908080359060200190929190803515159060200190929190505050610ed5565b005b34801561060b57600080fd5b5061065f6004803603608081101561062257600080fd5b8101908080359060200190929190803560ff169060200190929190803560ff169060200190929190803560ff169060200190929190505050610fc1565b005b6001600083815260200190815260200160002060009054906101000a900473ffffffffffffffffffffffffffffffffffffffff1673ffffffffffffffffffffffffffffffffffffffff163373ffffffffffffffffffffffffffffffffffffffff161415156106ce57600080fd5b806000838154811015156106de57fe5b906000526020600020906003020160020160046101000a81548160ff021916908360ff1602179055507ff6071595ec72fb58f420763b6bf2bbe7ad0836489e7fbaef2b52fc39e797074a8282604051808381526020018260ff1660ff1681526020019250505060405180910390a15050565b60016020528060005260406000206000915054906101000a900473ffffffffffffffffffffffffffffffffffffffff1681565b60008181548110151561079257fe5b9060005260206000209060030201600091509050806000018054600181600116156101000203166002900480601f01602080910402602001604051908101604052809291908181526020018280546001816001161561010002031660029004801561083e5780601f106108135761010080835404028352916020019161083e565b820191906000526020600020905b81548152906001019060200180831161082157829003601f168201915b505050505090806001018054600181600116156101000203166002900480601f0160208091040260200160405190810160405280929190818152602001828054600181600116156101000203166002900480156108dc5780601f106108b1576101008083540402835291602001916108dc565b820191906000526020600020905b8154815290600101906020018083116108bf57829003601f168201915b5050505050908060020160009054906101000a900460ff16908060020160019054906101000a900460ff16908060020160029054906101000a900460ff16908060020160039054906101000a900460ff16908060020160049054906101000a900460ff16905087565b6001600083815260200190815260200160002060009054906101000a900473ffffffffffffffffffffffffffffffffffffffff1673ffffffffffffffffffffffffffffffffffffffff163373ffffffffffffffffffffffffffffffffffffffff161415156109b257600080fd5b806000838154811015156109c257fe5b906000526020600020906003020160010190805190602001906109e6929190611140565b507fc08f00439f67ede4cd3bf3516b07a5934614481602463c4c4ad2a0be58badf5c82826040518083815260200180602001828103825283818151815260200191508051906020019080838360005b83811015610a50578082015181840152602081019050610a35565b50505050905090810190601f168015610a7d5780820380516001836020036101000a031916815260200191505b50935050505060405180910390a15050565b6001600083815260200190815260200160002060009054906101000a900473ffffffffffffffffffffffffffffffffffffffff1673ffffffffffffffffffffffffffffffffffffffff163373ffffffffffffffffffffffffffffffffffffffff16141515610afc57600080fd5b80600083815481101515610b0c57fe5b90600052602060002090600302016000019080519060200190610b30929190611140565b507f7e632a301794d8d4a81ea7e20f37d1947158d36e66403af04ba85dd194b66f1b82826040518083815260200180602001828103825283818151815260200191508051906020019080838360005b83811015610b9a578082015181840152602081019050610b7f565b50505050905090810190601f168015610bc75780820380516001836020036101000a031916815260200191505b50935050505060405180910390a15050565b60006001600060e06040519081016040528086815260200185815260200160001515815260200160ff8016815260200160ff8016815260200160ff80168152602001606460ff16815250908060018154018082558091505090600182039060005260206000209060030201600090919290919091506000820151816000019080519060200190610c6a9291906111c0565b506020820151816001019080519060200190610c879291906111c0565b5060408201518160020160006101000a81548160ff02191690831515021790555060608201518160020160016101000a81548160ff021916908360ff16021790555060808201518160020160026101000a81548160ff021916908360ff16021790555060a08201518160020160036101000a81548160ff021916908360ff16021790555060c08201518160020160046101000a81548160ff021916908360ff1602179055505050039050336001600083815260200190815260200160002060006101000a81548173ffffffffffffffffffffffffffffffffffffffff021916908373ffffffffffffffffffffffffffffffffffffffff1602179055507f4027b9abf36e7ff08fd10ad61c3779fd0ca10b982df98fb7e3603438fbc886e9818484600060ff8060ff6064604051808981526020018060200180602001881515151581526020018760ff1681526020018660ff1681526020018560ff1681526020018460ff16815260200183810383528a818151815260200191508051906020019080838360005b83811015610e28578082015181840152602081019050610e0d565b50505050905090810190601f168015610e555780820380516001836020036101000a031916815260200191505b50838103825289818151815260200191508051906020019080838360005b83811015610e8e578082015181840152602081019050610e73565b50505050905090810190601f168015610ebb5780820380516001836020036101000a031916815260200191505b509a505050505050505050505060405180910390a1505050565b6001600083815260200190815260200160002060009054906101000a900473ffffffffffffffffffffffffffffffffffffffff1673ffffffffffffffffffffffffffffffffffffffff163373ffffffffffffffffffffffffffffffffffffffff16141515610f4257600080fd5b80600083815481101515610f5257fe5b906000526020600020906003020160020160006101000a81548160ff0219169083151502179055507fd47e073b3bafc2bf58ecf7e117d02c3248e5002d18bf028847943eebf065029f828260405180838152602001821515151581526020019250505060405180910390a15050565b6001600085815260200190815260200160002060009054906101000a900473ffffffffffffffffffffffffffffffffffffffff1673ffffffffffffffffffffffffffffffffffffffff163373ffffffffffffffffffffffffffffffffffffffff1614151561102e57600080fd5b8260008581548110151561103e57fe5b906000526020600020906003020160020160016101000a81548160ff021916908360ff1602179055508160008581548110151561107757fe5b906000526020600020906003020160020160026101000a81548160ff021916908360ff160217905550806000858154811015156110b057fe5b906000526020600020906003020160020160026101000a81548160ff021916908360ff1602179055507f78ce14f04b5000cec77d6440103345091b850b9a01bd1d409fffcc6f54bf0c9f84848484604051808581526020018460ff1660ff1681526020018360ff1660ff1681526020018260ff1660ff16815260200194505050505060405180910390a150505050565b828054600181600116156101000203166002900490600052602060002090601f016020900481019282601f1061118157805160ff19168380011785556111af565b828001600101855582156111af579182015b828111156111ae578251825591602001919060010190611193565b5b5090506111bc9190611240565b5090565b828054600181600116156101000203166002900490600052602060002090601f016020900481019282601f1061120157805160ff191683800117855561122f565b8280016001018555821561122f579182015b8281111561122e578251825591602001919060010190611213565b5b50905061123c9190611240565b5090565b61126291905b8082111561125e576000816000905550600101611246565b5090565b9056fea165627a7a723058205f0b0c6846ab9ba4bcbfe5cfb32d3174bc4af4eb3a359059a3a88fcd1c8eecd40029",
  "source": "pragma solidity ^0.5.0;\n\ncontract LightBulbs {\n\n    event NewLightBulb(uint lightBulbId, string name, string description, bool status, uint8 red, uint8 green, uint8 blue, uint8 intensity);\n    event NameChange(uint lightBulbId, string name);\n    event DescriptionChange(uint lightBulbId, string description);\n    event StatusChange(uint lightBulbId, bool status);\n    event ColorChange(uint lightBulbId, uint8 red, uint8 green, uint8 blue);\n    event IntensityChange(uint lightBulbId, uint8 intensity);\n\n    struct LightBulb {\n        string name; // front door \n        string description; // for plug -> what to, where\n        bool status; // true/false = on/off\n        uint8 red; // 0-255\n        uint8 green;\n        uint8 blue;\n        uint8 intensity; // 0-100\n    }\n\n    LightBulb[] public lightBulbs;\n\n    mapping (uint => address) public lightBulbToOwner;\n\n    function _addNewLightBulb(string memory _name, string memory _description) public {\n        uint _id = lightBulbs.push(LightBulb(_name, _description, false, 255, 255, 255, 100)) - 1;\n        lightBulbToOwner[_id] = msg.sender;\n        emit NewLightBulb(_id, _name, _description, false, 255, 255, 255, 100);\n    }\n\n    function _changeName(uint _lightBulbId, string memory _name) public {\n        require(msg.sender == lightBulbToOwner[_lightBulbId]);\n        lightBulbs[_lightBulbId].name = _name;\n        emit NameChange(_lightBulbId, _name);\n    }\n\n    function _changeStatus(uint _lightBulbId, bool _status) public {\n        require(msg.sender == lightBulbToOwner[_lightBulbId]);\n        lightBulbs[_lightBulbId].status = _status;\n        emit StatusChange(_lightBulbId, _status);\n    }\n\n    function _changeDescription(uint _lightBulbId, string memory _description) public {\n        require(msg.sender == lightBulbToOwner[_lightBulbId]);\n        lightBulbs[_lightBulbId].description = _description;\n        emit DescriptionChange(_lightBulbId, _description);\n    }\n\n    function _changeColor(uint _lightBulbId, uint8 _red, uint8 _green, uint8 _blue) public {\n        require(msg.sender == lightBulbToOwner[_lightBulbId]);\n        lightBulbs[_lightBulbId].red = _red;\n        lightBulbs[_lightBulbId].green = _green;\n        lightBulbs[_lightBulbId].green = _blue;\n        emit ColorChange(_lightBulbId, _red, _green, _blue);\n    }\n\n    function _changeIntensity(uint _lightBulbId, uint8 _intensity) public {\n        require(msg.sender == lightBulbToOwner[_lightBulbId]);\n        lightBulbs[_lightBulbId].intensity = _intensity;\n        emit IntensityChange(_lightBulbId, _intensity);\n    }\n}\n",
  "sourcePath": "/ethdata/truffle/contracts/LightBulbs.sol",
  "compiler": {
    "name": "solc",
    "version": "0.5.0+commit.1d4f565a.Emscripten.clang"
  },
  "schemaVersion": "3.0.6",
  "updatedAt": "2019-04-08T13:52:55.438Z",
  "devdoc": {
    "methods": {}
  },
  "userdoc": {
    "methods": {}
  }
}