{
  "contractName": "ElectricPlugs",
  "abi": [
    {
      "constant": true,
      "inputs": [
        {
          "name": "",
          "type": "uint256"
        }
      ],
      "name": "electricPlugs",
      "outputs": [
        {
          "name": "hash_id",
          "type": "string"
        },
        {
          "name": "name",
          "type": "string"
        },
        {
          "name": "description",
          "type": "string"
        },
        {
          "name": "status",
          "type": "bool"
        }
      ],
      "payable": false,
      "stateMutability": "view",
      "type": "function",
      "signature": "0x31420396"
    },
    {
      "constant": true,
      "inputs": [
        {
          "name": "",
          "type": "uint256"
        }
      ],
      "name": "electricPlugToOwner",
      "outputs": [
        {
          "name": "",
          "type": "address"
        }
      ],
      "payable": false,
      "stateMutability": "view",
      "type": "function",
      "signature": "0xc7c7781d"
    },
    {
      "anonymous": false,
      "inputs": [
        {
          "indexed": false,
          "name": "hash_id",
          "type": "string"
        },
        {
          "indexed": false,
          "name": "name",
          "type": "string"
        },
        {
          "indexed": false,
          "name": "description",
          "type": "string"
        },
        {
          "indexed": false,
          "name": "status",
          "type": "bool"
        }
      ],
      "name": "NewElectricPlug",
      "type": "event",
      "signature": "0x0fe8ade08f9c95f5562befba84708974ea055abbe35aa668a12d6ed6abe12930"
    },
    {
      "anonymous": false,
      "inputs": [
        {
          "indexed": false,
          "name": "hash_id",
          "type": "string"
        },
        {
          "indexed": false,
          "name": "name",
          "type": "string"
        }
      ],
      "name": "NameChange",
      "type": "event",
      "signature": "0x82aa352f0c38e74351692e2b87665d1943c491c15543eee23c2d16643e7ff13c"
    },
    {
      "anonymous": false,
      "inputs": [
        {
          "indexed": false,
          "name": "hash_id",
          "type": "string"
        },
        {
          "indexed": false,
          "name": "description",
          "type": "string"
        }
      ],
      "name": "DescriptionChange",
      "type": "event",
      "signature": "0x4571e3c20940ff74f66733464cc30f0654a372baaa5aba0cc7b8e5d4f37fcdb8"
    },
    {
      "anonymous": false,
      "inputs": [
        {
          "indexed": false,
          "name": "hash_id",
          "type": "string"
        },
        {
          "indexed": false,
          "name": "status",
          "type": "bool"
        }
      ],
      "name": "StatusChange",
      "type": "event",
      "signature": "0x8b7f6acba3b055579f158c2af4f518759366ed0a247fad9b45ce8aad59b2c51f"
    },
    {
      "constant": true,
      "inputs": [],
      "name": "getNumberOfdevices",
      "outputs": [
        {
          "name": "",
          "type": "uint256"
        }
      ],
      "payable": false,
      "stateMutability": "view",
      "type": "function",
      "signature": "0x4dc4d0e5"
    },
    {
      "constant": true,
      "inputs": [
        {
          "name": "_id",
          "type": "uint256"
        }
      ],
      "name": "fetchDeviceStatus",
      "outputs": [
        {
          "name": "_hash_id",
          "type": "string"
        },
        {
          "name": "_name",
          "type": "string"
        },
        {
          "name": "_description",
          "type": "string"
        },
        {
          "name": "_status",
          "type": "bool"
        }
      ],
      "payable": false,
      "stateMutability": "view",
      "type": "function",
      "signature": "0x6bb68b86"
    },
    {
      "constant": false,
      "inputs": [
        {
          "name": "_name",
          "type": "string"
        },
        {
          "name": "_description",
          "type": "string"
        }
      ],
      "name": "_addElectricPlug",
      "outputs": [],
      "payable": false,
      "stateMutability": "nonpayable",
      "type": "function",
      "signature": "0xcb25eaed"
    },
    {
      "constant": false,
      "inputs": [
        {
          "name": "_electricPlugId",
          "type": "uint256"
        },
        {
          "name": "_name",
          "type": "string"
        }
      ],
      "name": "_changeName",
      "outputs": [],
      "payable": false,
      "stateMutability": "nonpayable",
      "type": "function",
      "signature": "0x4da89bfb"
    },
    {
      "constant": false,
      "inputs": [
        {
          "name": "_electricPlugId",
          "type": "uint256"
        },
        {
          "name": "_description",
          "type": "string"
        }
      ],
      "name": "_changeDescription",
      "outputs": [],
      "payable": false,
      "stateMutability": "nonpayable",
      "type": "function",
      "signature": "0x447f9992"
    },
    {
      "constant": false,
      "inputs": [
        {
          "name": "_electricPlugId",
          "type": "uint256"
        },
        {
          "name": "_status",
          "type": "bool"
        }
      ],
      "name": "_changeStatus",
      "outputs": [],
      "payable": false,
      "stateMutability": "nonpayable",
      "type": "function",
      "signature": "0xc470af65"
    }
  ],
  "bytecode": "0x60806040526000805534801561001457600080fd5b5061184a806100246000396000f3fe60806040526004361061008e576000357c0100000000000000000000000000000000000000000000000000000000900463ffffffff1680633142039614610093578063447f99921461022a5780634da89bfb146102fc5780634dc4d0e5146103ce5780636bb68b86146103f9578063c470af6514610590578063c7c7781d146105d7578063cb25eaed14610652575b600080fd5b34801561009f57600080fd5b506100cc600480360360208110156100b657600080fd5b81019080803590602001909291905050506107b1565b6040518080602001806020018060200185151515158152602001848103845288818151815260200191508051906020019080838360005b8381101561011e578082015181840152602081019050610103565b50505050905090810190601f16801561014b5780820380516001836020036101000a031916815260200191505b50848103835287818151815260200191508051906020019080838360005b83811015610184578082015181840152602081019050610169565b50505050905090810190601f1680156101b15780820380516001836020036101000a031916815260200191505b50848103825286818151815260200191508051906020019080838360005b838110156101ea5780820151818401526020810190506101cf565b50505050905090810190601f1680156102175780820380516001836020036101000a031916815260200191505b5097505050505050505060405180910390f35b34801561023657600080fd5b506102fa6004803603604081101561024d57600080fd5b81019080803590602001909291908035906020019064010000000081111561027457600080fd5b82018360208201111561028657600080fd5b803590602001918460018302840111640100000000831117156102a857600080fd5b91908080601f016020809104026020016040519081016040528093929190818152602001838380828437600081840152601f19601f8201169050808301925050505050505091929192905050506109c5565b005b34801561030857600080fd5b506103cc6004803603604081101561031f57600080fd5b81019080803590602001909291908035906020019064010000000081111561034657600080fd5b82018360208201111561035857600080fd5b8035906020019184600183028401116401000000008311171561037a57600080fd5b91908080601f016020809104026020016040519081016040528093929190818152602001838380828437600081840152601f19601f820116905080830192505050505050509192919290505050610bb0565b005b3480156103da57600080fd5b506103e3610d9b565b6040518082815260200191505060405180910390f35b34801561040557600080fd5b506104326004803603602081101561041c57600080fd5b8101908080359060200190929190505050610da4565b6040518080602001806020018060200185151515158152602001848103845288818151815260200191508051906020019080838360005b83811015610484578082015181840152602081019050610469565b50505050905090810190601f1680156104b15780820380516001836020036101000a031916815260200191505b50848103835287818151815260200191508051906020019080838360005b838110156104ea5780820151818401526020810190506104cf565b50505050905090810190601f1680156105175780820380516001836020036101000a031916815260200191505b50848103825286818151815260200191508051906020019080838360005b83811015610550578082015181840152602081019050610535565b50505050905090810190601f16801561057d5780820380516001836020036101000a031916815260200191505b5097505050505050505060405180910390f35b34801561059c57600080fd5b506105d5600480360360408110156105b357600080fd5b810190808035906020019092919080351515906020019092919050505061101f565b005b3480156105e357600080fd5b50610610600480360360208110156105fa57600080fd5b81019080803590602001909291905050506111ac565b604051808273ffffffffffffffffffffffffffffffffffffffff1673ffffffffffffffffffffffffffffffffffffffff16815260200191505060405180910390f35b34801561065e57600080fd5b506107af6004803603604081101561067557600080fd5b810190808035906020019064010000000081111561069257600080fd5b8201836020820111156106a457600080fd5b803590602001918460018302840111640100000000831117156106c657600080fd5b91908080601f016020809104026020016040519081016040528093929190818152602001838380828437600081840152601f19601f8201169050808301925050505050505091929192908035906020019064010000000081111561072957600080fd5b82018360208201111561073b57600080fd5b8035906020019184600183028401116401000000008311171561075d57600080fd5b91908080601f016020809104026020016040519081016040528093929190818152602001838380828437600081840152601f19601f8201169050808301925050505050505091929192905050506111df565b005b6001818154811015156107c057fe5b9060005260206000209060040201600091509050806000018054600181600116156101000203166002900480601f01602080910402602001604051908101604052809291908181526020018280546001816001161561010002031660029004801561086c5780601f106108415761010080835404028352916020019161086c565b820191906000526020600020905b81548152906001019060200180831161084f57829003601f168201915b505050505090806001018054600181600116156101000203166002900480601f01602080910402602001604051908101604052809291908181526020018280546001816001161561010002031660029004801561090a5780601f106108df5761010080835404028352916020019161090a565b820191906000526020600020905b8154815290600101906020018083116108ed57829003601f168201915b505050505090806002018054600181600116156101000203166002900480601f0160208091040260200160405190810160405280929190818152602001828054600181600116156101000203166002900480156109a85780601f1061097d576101008083540402835291602001916109a8565b820191906000526020600020905b81548152906001019060200180831161098b57829003601f168201915b5050505050908060030160009054906101000a900460ff16905084565b6002600083815260200190815260200160002060009054906101000a900473ffffffffffffffffffffffffffffffffffffffff1673ffffffffffffffffffffffffffffffffffffffff163373ffffffffffffffffffffffffffffffffffffffff16141515610a3257600080fd5b80600183815481101515610a4257fe5b90600052602060002090600402016002019080519060200190610a669291906116f9565b507f4571e3c20940ff74f66733464cc30f0654a372baaa5aba0cc7b8e5d4f37fcdb8600183815481101515610a9757fe5b906000526020600020906004020160000182604051808060200180602001838103835285818154600181600116156101000203166002900481526020019150805460018160011615610100020316600290048015610b365780601f10610b0b57610100808354040283529160200191610b36565b820191906000526020600020905b815481529060010190602001808311610b1957829003601f168201915b5050838103825284818151815260200191508051906020019080838360005b83811015610b70578082015181840152602081019050610b55565b50505050905090810190601f168015610b9d5780820380516001836020036101000a031916815260200191505b5094505050505060405180910390a15050565b6002600083815260200190815260200160002060009054906101000a900473ffffffffffffffffffffffffffffffffffffffff1673ffffffffffffffffffffffffffffffffffffffff163373ffffffffffffffffffffffffffffffffffffffff16141515610c1d57600080fd5b80600183815481101515610c2d57fe5b90600052602060002090600402016001019080519060200190610c519291906116f9565b507f82aa352f0c38e74351692e2b87665d1943c491c15543eee23c2d16643e7ff13c600183815481101515610c8257fe5b906000526020600020906004020160000182604051808060200180602001838103835285818154600181600116156101000203166002900481526020019150805460018160011615610100020316600290048015610d215780601f10610cf657610100808354040283529160200191610d21565b820191906000526020600020905b815481529060010190602001808311610d0457829003601f168201915b5050838103825284818151815260200191508051906020019080838360005b83811015610d5b578082015181840152602081019050610d40565b50505050905090810190601f168015610d885780820380516001836020036101000a031916815260200191505b5094505050505060405180910390a15050565b60008054905090565b60608060606000600185815481101515610dba57fe5b90600052602060002090600402016000018054600181600116156101000203166002900480601f016020809104026020016040519081016040528092919081815260200182805460018160011615610100020316600290048015610e5f5780601f10610e3457610100808354040283529160200191610e5f565b820191906000526020600020905b815481529060010190602001808311610e4257829003601f168201915b5050505050935083600186815481101515610e7657fe5b90600052602060002090600402016001018054600181600116156101000203166002900480601f016020809104026020016040519081016040528092919081815260200182805460018160011615610100020316600290048015610f1b5780601f10610ef057610100808354040283529160200191610f1b565b820191906000526020600020905b815481529060010190602001808311610efe57829003601f168201915b5050505050935083600187815481101515610f3257fe5b90600052602060002090600402016002018054600181600116156101000203166002900480601f016020809104026020016040519081016040528092919081815260200182805460018160011615610100020316600290048015610fd75780601f10610fac57610100808354040283529160200191610fd7565b820191906000526020600020905b815481529060010190602001808311610fba57829003601f168201915b5050505050935083600188815481101515610fee57fe5b906000526020600020906004020160030160009054906101000a900460ff1693508393509350935093509193509193565b6002600083815260200190815260200160002060009054906101000a900473ffffffffffffffffffffffffffffffffffffffff1673ffffffffffffffffffffffffffffffffffffffff163373ffffffffffffffffffffffffffffffffffffffff1614151561108c57600080fd5b8060018381548110151561109c57fe5b906000526020600020906004020160030160006101000a81548160ff0219169083151502179055507f8b7f6acba3b055579f158c2af4f518759366ed0a247fad9b45ce8aad59b2c51f6001838154811015156110f457fe5b9060005260206000209060040201600001826040518080602001831515151581526020018281038252848181546001816001161561010002031660029004815260200191508054600181600116156101000203166002900480156111995780601f1061116e57610100808354040283529160200191611199565b820191906000526020600020905b81548152906001019060200180831161117c57829003601f168201915b5050935050505060405180910390a15050565b60026020528060005260406000206000915054906101000a900473ffffffffffffffffffffffffffffffffffffffff1681565b60006001806080604051908101604052806040805190810160405280600581526020017f456c655f58000000000000000000000000000000000000000000000000000000815250815260200186815260200185815260200160001515815250908060018154018082558091505090600182039060005260206000209060040201600090919290919091506000820151816000019080519060200190611285929190611779565b5060208201518160010190805190602001906112a2929190611779565b5060408201518160020190805190602001906112bf929190611779565b5060608201518160030160006101000a81548160ff021916908315150217905550505003905060606112f0826115a0565b60405160200180807f456c655f0000000000000000000000000000000000000000000000000000000081525060040182805190602001908083835b602083101515611350578051825260208201915060208101905060208303925061132b565b6001836020036101000a03801982511681845116808217855250505050505090500191505060405160208183030381529060405290508060018381548110151561139657fe5b906000526020600020906004020160000190805190602001906113ba9291906116f9565b5060018201600081905550336002600084815260200190815260200160002060006101000a81548173ffffffffffffffffffffffffffffffffffffffff021916908373ffffffffffffffffffffffffffffffffffffffff1602179055507f0fe8ade08f9c95f5562befba84708974ea055abbe35aa668a12d6ed6abe1293081858560006040518080602001806020018060200185151515158152602001848103845288818151815260200191508051906020019080838360005b8381101561148f578082015181840152602081019050611474565b50505050905090810190601f1680156114bc5780820380516001836020036101000a031916815260200191505b50848103835287818151815260200191508051906020019080838360005b838110156114f55780820151818401526020810190506114da565b50505050905090810190601f1680156115225780820380516001836020036101000a031916815260200191505b50848103825286818151815260200191508051906020019080838360005b8381101561155b578082015181840152602081019050611540565b50505050905090810190601f1680156115885780820380516001836020036101000a031916815260200191505b5097505050505050505060405180910390a150505050565b606060008214156115e8576040805190810160405280600181526020017f300000000000000000000000000000000000000000000000000000000000000081525090506116f4565b600082905060005b600082141515611616578080600101915050600a8281151561160e57fe5b0491506115f0565b6060816040519080825280601f01601f19166020018201604052801561164b5781602001600182028038833980820191505090505b50905060006001830390505b6000861415156116ec57600a8681151561166d57fe5b066030017f0100000000000000000000000000000000000000000000000000000000000000028282806001900393508151811015156116a857fe5b9060200101907effffffffffffffffffffffffffffffffffffffffffffffffffffffffffffff1916908160001a905350600a868115156116e457fe5b049550611657565b819450505050505b919050565b828054600181600116156101000203166002900490600052602060002090601f016020900481019282601f1061173a57805160ff1916838001178555611768565b82800160010185558215611768579182015b8281111561176757825182559160200191906001019061174c565b5b50905061177591906117f9565b5090565b828054600181600116156101000203166002900490600052602060002090601f016020900481019282601f106117ba57805160ff19168380011785556117e8565b828001600101855582156117e8579182015b828111156117e75782518255916020019190600101906117cc565b5b5090506117f591906117f9565b5090565b61181b91905b808211156118175760008160009055506001016117ff565b5090565b9056fea165627a7a723058206d1b3c2fcfbb78cbde81e0a0accd58d00d65018c051a21f36a81f9d288c931b00029",
  "source": "pragma solidity ^0.5.0;\n\ncontract ElectricPlugs {\n  \n  event NewElectricPlug(string hash_id, string name, string description, bool status);\n  event NameChange(string hash_id, string name);\n  event DescriptionChange(string hash_id, string description);\n  event StatusChange(string hash_id, bool status);\n\n  struct ElectricPlug {\n    string hash_id; //in format Ele_1\n    string name; // front door \n    string description; // for plug -> what to, where\n    bool status; // true/false = on/off\n  }\n  \n  uint deviceCounter = 0;\n  ElectricPlug[] public electricPlugs;\n\n  mapping (uint => address) public electricPlugToOwner;\n  \n  // return current number of devices\n  function getNumberOfdevices() public view returns (uint) {\n    return  deviceCounter;\n  }\n  \n  // help function to convert uint 2 string\n  function uint2str(uint _i) internal pure returns (string memory _uintAsString) {\n    if (_i == 0) {\n        return \"0\";\n    }\n    uint j = _i;\n    uint len;\n    while (j != 0) {\n        len++;\n        j /= 10;\n    }\n    bytes memory bstr = new bytes(len);\n    uint k = len - 1;\n    while (_i != 0) {\n        bstr[k--] = byte(uint8(48 + _i % 10));\n        _i /= 10;\n    }\n    return string(bstr);\n  }\n\n  // fetch a device's information\n  function fetchDeviceStatus(uint256 _id) external view returns (\n    string memory _hash_id,\n    string memory _name,\n    string memory _description,\n    bool _status // true/false = on/off\n    ) {\n    return (\n    _hash_id = electricPlugs[_id].hash_id,\n    _name = electricPlugs[_id].name,\n    _description = electricPlugs[_id].description,\n    _status = electricPlugs[_id].status\n    );\n  }\n\n  // Add a new device\n  function _addElectricPlug(string memory _name, string memory _description) public {\n    uint _electricPlugId = electricPlugs.push(ElectricPlug(\"Ele_X\",_name, _description, false)) - 1;\n    string memory _hash_id = string(abi.encodePacked(\"Ele_\", uint2str(_electricPlugId)));\n    electricPlugs[_electricPlugId].hash_id = _hash_id;\n\n    deviceCounter = _electricPlugId+1;\n\n    electricPlugToOwner[_electricPlugId] = msg.sender;\n    emit NewElectricPlug(_hash_id, _name, _description, false);\n  }\n\n  // All changes\n  function _changeName(uint _electricPlugId, string memory _name) public {\n    require(msg.sender == electricPlugToOwner[_electricPlugId]);\n    electricPlugs[_electricPlugId].name = _name;\n    emit NameChange(electricPlugs[_electricPlugId].hash_id, _name);\n  }\n\n  function _changeDescription(uint _electricPlugId, string memory _description) public {\n    require(msg.sender == electricPlugToOwner[_electricPlugId]);\n    electricPlugs[_electricPlugId].description = _description;\n    emit DescriptionChange(electricPlugs[_electricPlugId].hash_id, _description);\n  }\n\n  function _changeStatus(uint _electricPlugId, bool _status) public {\n    require(msg.sender == electricPlugToOwner[_electricPlugId]);\n    electricPlugs[_electricPlugId].status = _status;\n    emit StatusChange(electricPlugs[_electricPlugId].hash_id, _status);\n  }\n\n} // end of contract",
  "sourcePath": "/Users/kainguyen/ethdata/truffle/contracts/ElectricPlugs.sol",
  "compiler": {
    "name": "solc",
    "version": "0.5.0+commit.1d4f565a.Emscripten.clang"
  },
  "schemaVersion": "3.0.6",
  "updatedAt": "2019-04-10T07:17:23.088Z",
  "devdoc": {
    "methods": {}
  },
  "userdoc": {
    "methods": {}
  }
}