{
  "contractName": "LightBulbs",
  "abi": [
    {
      "constant": true,
      "inputs": [
        {
          "name": "",
          "type": "uint256"
        }
      ],
      "name": "lightBulbToOwner",
      "outputs": [
        {
          "name": "",
          "type": "address"
        }
      ],
      "payable": false,
      "stateMutability": "view",
      "type": "function",
      "signature": "0x0e951d69"
    },
    {
      "constant": true,
      "inputs": [
        {
          "name": "",
          "type": "uint256"
        }
      ],
      "name": "lightBulbs",
      "outputs": [
        {
          "name": "hash_id",
          "type": "string"
        },
        {
          "name": "name",
          "type": "string"
        },
        {
          "name": "description",
          "type": "string"
        },
        {
          "name": "status",
          "type": "bool"
        },
        {
          "name": "red",
          "type": "uint8"
        },
        {
          "name": "green",
          "type": "uint8"
        },
        {
          "name": "blue",
          "type": "uint8"
        },
        {
          "name": "intensity",
          "type": "uint8"
        }
      ],
      "payable": false,
      "stateMutability": "view",
      "type": "function",
      "signature": "0x34ae3122"
    },
    {
      "anonymous": false,
      "inputs": [
        {
          "indexed": false,
          "name": "hash_id",
          "type": "string"
        },
        {
          "indexed": false,
          "name": "name",
          "type": "string"
        },
        {
          "indexed": false,
          "name": "description",
          "type": "string"
        },
        {
          "indexed": false,
          "name": "status",
          "type": "bool"
        },
        {
          "indexed": false,
          "name": "red",
          "type": "uint8"
        },
        {
          "indexed": false,
          "name": "green",
          "type": "uint8"
        },
        {
          "indexed": false,
          "name": "blue",
          "type": "uint8"
        },
        {
          "indexed": false,
          "name": "intensity",
          "type": "uint8"
        }
      ],
      "name": "NewLightBulb",
      "type": "event",
      "signature": "0x3b606a1747d7fe065735b8898b68258ccaa96b58e664383caaac5c2cfe1e5217"
    },
    {
      "anonymous": false,
      "inputs": [
        {
          "indexed": false,
          "name": "hash_id",
          "type": "string"
        },
        {
          "indexed": false,
          "name": "name",
          "type": "string"
        }
      ],
      "name": "NameChange",
      "type": "event",
      "signature": "0x82aa352f0c38e74351692e2b87665d1943c491c15543eee23c2d16643e7ff13c"
    },
    {
      "anonymous": false,
      "inputs": [
        {
          "indexed": false,
          "name": "hash_id",
          "type": "string"
        },
        {
          "indexed": false,
          "name": "description",
          "type": "string"
        }
      ],
      "name": "DescriptionChange",
      "type": "event",
      "signature": "0x4571e3c20940ff74f66733464cc30f0654a372baaa5aba0cc7b8e5d4f37fcdb8"
    },
    {
      "anonymous": false,
      "inputs": [
        {
          "indexed": false,
          "name": "hash_id",
          "type": "string"
        },
        {
          "indexed": false,
          "name": "status",
          "type": "bool"
        }
      ],
      "name": "StatusChange",
      "type": "event",
      "signature": "0x8b7f6acba3b055579f158c2af4f518759366ed0a247fad9b45ce8aad59b2c51f"
    },
    {
      "anonymous": false,
      "inputs": [
        {
          "indexed": false,
          "name": "hash_id",
          "type": "string"
        },
        {
          "indexed": false,
          "name": "red",
          "type": "uint8"
        },
        {
          "indexed": false,
          "name": "green",
          "type": "uint8"
        },
        {
          "indexed": false,
          "name": "blue",
          "type": "uint8"
        }
      ],
      "name": "ColorChange",
      "type": "event",
      "signature": "0x47b2f1f5f164c0daa8c8ca922f29fee9a9989dbd6f72a72b4dd2bfbddbc69add"
    },
    {
      "anonymous": false,
      "inputs": [
        {
          "indexed": false,
          "name": "hash_id",
          "type": "string"
        },
        {
          "indexed": false,
          "name": "intensity",
          "type": "uint8"
        }
      ],
      "name": "IntensityChange",
      "type": "event",
      "signature": "0x75bbd057c7080cf9fd9b5a1a3852168fc5199e9c92834ae862b8acdc0580bdf1"
    },
    {
      "constant": true,
      "inputs": [],
      "name": "getNumberOfdevices",
      "outputs": [
        {
          "name": "",
          "type": "uint256"
        }
      ],
      "payable": false,
      "stateMutability": "view",
      "type": "function",
      "signature": "0x4dc4d0e5"
    },
    {
      "constant": true,
      "inputs": [
        {
          "name": "_id",
          "type": "uint256"
        }
      ],
      "name": "fetchDeviceStatus",
      "outputs": [
        {
          "name": "_name",
          "type": "string"
        },
        {
          "name": "_description",
          "type": "string"
        },
        {
          "name": "_status",
          "type": "bool"
        },
        {
          "name": "_red",
          "type": "uint8"
        },
        {
          "name": "_green",
          "type": "uint8"
        },
        {
          "name": "_blue",
          "type": "uint8"
        },
        {
          "name": "_intensity",
          "type": "uint8"
        }
      ],
      "payable": false,
      "stateMutability": "view",
      "type": "function",
      "signature": "0x6bb68b86"
    },
    {
      "constant": false,
      "inputs": [
        {
          "name": "_name",
          "type": "string"
        },
        {
          "name": "_description",
          "type": "string"
        }
      ],
      "name": "_addNewLightBulb",
      "outputs": [],
      "payable": false,
      "stateMutability": "nonpayable",
      "type": "function",
      "signature": "0x8a9daf5e"
    },
    {
      "constant": false,
      "inputs": [
        {
          "name": "_lightBulbId",
          "type": "uint256"
        },
        {
          "name": "_name",
          "type": "string"
        }
      ],
      "name": "_changeName",
      "outputs": [],
      "payable": false,
      "stateMutability": "nonpayable",
      "type": "function",
      "signature": "0x4da89bfb"
    },
    {
      "constant": false,
      "inputs": [
        {
          "name": "_lightBulbId",
          "type": "uint256"
        },
        {
          "name": "_status",
          "type": "bool"
        }
      ],
      "name": "_changeStatus",
      "outputs": [],
      "payable": false,
      "stateMutability": "nonpayable",
      "type": "function",
      "signature": "0xc470af65"
    },
    {
      "constant": false,
      "inputs": [
        {
          "name": "_lightBulbId",
          "type": "uint256"
        },
        {
          "name": "_description",
          "type": "string"
        }
      ],
      "name": "_changeDescription",
      "outputs": [],
      "payable": false,
      "stateMutability": "nonpayable",
      "type": "function",
      "signature": "0x447f9992"
    },
    {
      "constant": false,
      "inputs": [
        {
          "name": "_lightBulbId",
          "type": "uint256"
        },
        {
          "name": "_red",
          "type": "uint8"
        },
        {
          "name": "_green",
          "type": "uint8"
        },
        {
          "name": "_blue",
          "type": "uint8"
        }
      ],
      "name": "_changeColor",
      "outputs": [],
      "payable": false,
      "stateMutability": "nonpayable",
      "type": "function",
      "signature": "0xed2d4ccc"
    },
    {
      "constant": false,
      "inputs": [
        {
          "name": "_lightBulbId",
          "type": "uint256"
        },
        {
          "name": "_intensity",
          "type": "uint8"
        }
      ],
      "name": "_changeIntensity",
      "outputs": [],
      "payable": false,
      "stateMutability": "nonpayable",
      "type": "function",
      "signature": "0x094be136"
    }
  ],
  "bytecode": "0x60806040526000805534801561001457600080fd5b50611df1806100246000396000f3fe6080604052600436106100a4576000357c0100000000000000000000000000000000000000000000000000000000900463ffffffff168063094be136146100a95780630e951d69146100f157806334ae31221461016c578063447f9992146103375780634da89bfb146104095780634dc4d0e5146104db5780636bb68b86146105065780638a9daf5e14610665578063c470af65146107c4578063ed2d4ccc1461080b575b600080fd5b3480156100b557600080fd5b506100ef600480360360408110156100cc57600080fd5b8101908080359060200190929190803560ff16906020019092919050505061086d565b005b3480156100fd57600080fd5b5061012a6004803603602081101561011457600080fd5b81019080803590602001909291905050506109fd565b604051808273ffffffffffffffffffffffffffffffffffffffff1673ffffffffffffffffffffffffffffffffffffffff16815260200191505060405180910390f35b34801561017857600080fd5b506101a56004803603602081101561018f57600080fd5b8101908080359060200190929190505050610a30565b60405180806020018060200180602001891515151581526020018860ff1660ff1681526020018760ff1660ff1681526020018660ff1660ff1681526020018560ff1660ff16815260200184810384528c818151815260200191508051906020019080838360005b8381101561022757808201518184015260208101905061020c565b50505050905090810190601f1680156102545780820380516001836020036101000a031916815260200191505b5084810383528b818151815260200191508051906020019080838360005b8381101561028d578082015181840152602081019050610272565b50505050905090810190601f1680156102ba5780820380516001836020036101000a031916815260200191505b5084810382528a818151815260200191508051906020019080838360005b838110156102f35780820151818401526020810190506102d8565b50505050905090810190601f1680156103205780820380516001836020036101000a031916815260200191505b509b50505050505050505050505060405180910390f35b34801561034357600080fd5b506104076004803603604081101561035a57600080fd5b81019080803590602001909291908035906020019064010000000081111561038157600080fd5b82018360208201111561039357600080fd5b803590602001918460018302840111640100000000831117156103b557600080fd5b91908080601f016020809104026020016040519081016040528093929190818152602001838380828437600081840152601f19601f820116905080830192505050505050509192919290505050610c90565b005b34801561041557600080fd5b506104d96004803603604081101561042c57600080fd5b81019080803590602001909291908035906020019064010000000081111561045357600080fd5b82018360208201111561046557600080fd5b8035906020019184600183028401116401000000008311171561048757600080fd5b91908080601f016020809104026020016040519081016040528093929190818152602001838380828437600081840152601f19601f820116905080830192505050505050509192919290505050610e7b565b005b3480156104e757600080fd5b506104f0611066565b6040518082815260200191505060405180910390f35b34801561051257600080fd5b5061053f6004803603602081101561052957600080fd5b810190808035906020019092919050505061106f565b604051808060200180602001881515151581526020018760ff1660ff1681526020018660ff1660ff1681526020018560ff1660ff1681526020018460ff1660ff16815260200183810383528a818151815260200191508051906020019080838360005b838110156105bd5780820151818401526020810190506105a2565b50505050905090810190601f1680156105ea5780820380516001836020036101000a031916815260200191505b50838103825289818151815260200191508051906020019080838360005b83811015610623578082015181840152602081019050610608565b50505050905090810190601f1680156106505780820380516001836020036101000a031916815260200191505b50995050505050505050505060405180910390f35b34801561067157600080fd5b506107c26004803603604081101561068857600080fd5b81019080803590602001906401000000008111156106a557600080fd5b8201836020820111156106b757600080fd5b803590602001918460018302840111640100000000831117156106d957600080fd5b91908080601f016020809104026020016040519081016040528093929190818152602001838380828437600081840152601f19601f8201169050808301925050505050505091929192908035906020019064010000000081111561073c57600080fd5b82018360208201111561074e57600080fd5b8035906020019184600183028401116401000000008311171561077057600080fd5b91908080601f016020809104026020016040519081016040528093929190818152602001838380828437600081840152601f19601f820116905080830192505050505050509192919290505050611300565b005b3480156107d057600080fd5b50610809600480360360408110156107e757600080fd5b810190808035906020019092919080351515906020019092919050505061179a565b005b34801561081757600080fd5b5061086b6004803603608081101561082e57600080fd5b8101908080359060200190929190803560ff169060200190929190803560ff169060200190929190803560ff169060200190929190505050611927565b005b6002600083815260200190815260200160002060009054906101000a900473ffffffffffffffffffffffffffffffffffffffff1673ffffffffffffffffffffffffffffffffffffffff163373ffffffffffffffffffffffffffffffffffffffff161415156108da57600080fd5b806001838154811015156108ea57fe5b906000526020600020906004020160030160046101000a81548160ff021916908360ff1602179055507f75bbd057c7080cf9fd9b5a1a3852168fc5199e9c92834ae862b8acdc0580bdf160018381548110151561094357fe5b90600052602060002090600402016000018260405180806020018360ff1660ff1681526020018281038252848181546001816001161561010002031660029004815260200191508054600181600116156101000203166002900480156109ea5780601f106109bf576101008083540402835291602001916109ea565b820191906000526020600020905b8154815290600101906020018083116109cd57829003601f168201915b5050935050505060405180910390a15050565b60026020528060005260406000206000915054906101000a900473ffffffffffffffffffffffffffffffffffffffff1681565b600181815481101515610a3f57fe5b9060005260206000209060040201600091509050806000018054600181600116156101000203166002900480601f016020809104026020016040519081016040528092919081815260200182805460018160011615610100020316600290048015610aeb5780601f10610ac057610100808354040283529160200191610aeb565b820191906000526020600020905b815481529060010190602001808311610ace57829003601f168201915b505050505090806001018054600181600116156101000203166002900480601f016020809104026020016040519081016040528092919081815260200182805460018160011615610100020316600290048015610b895780601f10610b5e57610100808354040283529160200191610b89565b820191906000526020600020905b815481529060010190602001808311610b6c57829003601f168201915b505050505090806002018054600181600116156101000203166002900480601f016020809104026020016040519081016040528092919081815260200182805460018160011615610100020316600290048015610c275780601f10610bfc57610100808354040283529160200191610c27565b820191906000526020600020905b815481529060010190602001808311610c0a57829003601f168201915b5050505050908060030160009054906101000a900460ff16908060030160019054906101000a900460ff16908060030160029054906101000a900460ff16908060030160039054906101000a900460ff16908060030160049054906101000a900460ff16905088565b6002600083815260200190815260200160002060009054906101000a900473ffffffffffffffffffffffffffffffffffffffff1673ffffffffffffffffffffffffffffffffffffffff163373ffffffffffffffffffffffffffffffffffffffff16141515610cfd57600080fd5b80600183815481101515610d0d57fe5b90600052602060002090600402016002019080519060200190610d31929190611ca0565b507f4571e3c20940ff74f66733464cc30f0654a372baaa5aba0cc7b8e5d4f37fcdb8600183815481101515610d6257fe5b906000526020600020906004020160000182604051808060200180602001838103835285818154600181600116156101000203166002900481526020019150805460018160011615610100020316600290048015610e015780601f10610dd657610100808354040283529160200191610e01565b820191906000526020600020905b815481529060010190602001808311610de457829003601f168201915b5050838103825284818151815260200191508051906020019080838360005b83811015610e3b578082015181840152602081019050610e20565b50505050905090810190601f168015610e685780820380516001836020036101000a031916815260200191505b5094505050505060405180910390a15050565b6002600083815260200190815260200160002060009054906101000a900473ffffffffffffffffffffffffffffffffffffffff1673ffffffffffffffffffffffffffffffffffffffff163373ffffffffffffffffffffffffffffffffffffffff16141515610ee857600080fd5b80600183815481101515610ef857fe5b90600052602060002090600402016001019080519060200190610f1c929190611ca0565b507f82aa352f0c38e74351692e2b87665d1943c491c15543eee23c2d16643e7ff13c600183815481101515610f4d57fe5b906000526020600020906004020160000182604051808060200180602001838103835285818154600181600116156101000203166002900481526020019150805460018160011615610100020316600290048015610fec5780601f10610fc157610100808354040283529160200191610fec565b820191906000526020600020905b815481529060010190602001808311610fcf57829003601f168201915b5050838103825284818151815260200191508051906020019080838360005b8381101561102657808201518184015260208101905061100b565b50505050905090810190601f1680156110535780820380516001836020036101000a031916815260200191505b5094505050505060405180910390a15050565b60008054905090565b606080600080600080600060018881548110151561108957fe5b90600052602060002090600402016001018054600181600116156101000203166002900480601f01602080910402602001604051908101604052809291908181526020018280546001816001161561010002031660029004801561112e5780601f106111035761010080835404028352916020019161112e565b820191906000526020600020905b81548152906001019060200180831161111157829003601f168201915b505050505096508660018981548110151561114557fe5b90600052602060002090600402016002018054600181600116156101000203166002900480601f0160208091040260200160405190810160405280929190818152602001828054600181600116156101000203166002900480156111ea5780601f106111bf576101008083540402835291602001916111ea565b820191906000526020600020905b8154815290600101906020018083116111cd57829003601f168201915b505050505096508660018a81548110151561120157fe5b906000526020600020906004020160030160009054906101000a900460ff1696508660018b81548110151561123257fe5b906000526020600020906004020160030160019054906101000a900460ff1696508660018c81548110151561126357fe5b906000526020600020906004020160030160029054906101000a900460ff1696508660018d81548110151561129457fe5b906000526020600020906004020160030160039054906101000a900460ff1696508660018e8154811015156112c557fe5b906000526020600020906004020160030160049054906101000a900460ff169650869650965096509650965096509650919395979092949650565b6000600180610100604051908101604052806040805190810160405280600581526020017f4c69625f58000000000000000000000000000000000000000000000000000000815250815260200186815260200185815260200160001515815260200160ff8016815260200160ff8016815260200160ff80168152602001606460ff168152509080600181540180825580915050906001820390600052602060002090600402016000909192909190915060008201518160000190805190602001906113cc929190611d20565b5060208201518160010190805190602001906113e9929190611d20565b506040820151816002019080519060200190611406929190611d20565b5060608201518160030160006101000a81548160ff02191690831515021790555060808201518160030160016101000a81548160ff021916908360ff16021790555060a08201518160030160026101000a81548160ff021916908360ff16021790555060c08201518160030160036101000a81548160ff021916908360ff16021790555060e08201518160030160046101000a81548160ff021916908360ff160217905550505003905060606114bb82611b47565b60405160200180807f4c69625f0000000000000000000000000000000000000000000000000000000081525060040182805190602001908083835b60208310151561151b57805182526020820191506020810190506020830392506114f6565b6001836020036101000a03801982511681845116808217855250505050505090500191505060405160208183030381529060405290508060018381548110151561156157fe5b90600052602060002090600402016000019080519060200190611585929190611ca0565b5060018201600081905550336002600084815260200190815260200160002060006101000a81548173ffffffffffffffffffffffffffffffffffffffff021916908373ffffffffffffffffffffffffffffffffffffffff1602179055507f3b606a1747d7fe065735b8898b68258ccaa96b58e664383caaac5c2cfe1e5217818585600060ff8060ff606460405180806020018060200180602001891515151581526020018860ff1681526020018760ff1681526020018660ff1681526020018560ff16815260200184810384528c818151815260200191508051906020019080838360005b8381101561168557808201518184015260208101905061166a565b50505050905090810190601f1680156116b25780820380516001836020036101000a031916815260200191505b5084810383528b818151815260200191508051906020019080838360005b838110156116eb5780820151818401526020810190506116d0565b50505050905090810190601f1680156117185780820380516001836020036101000a031916815260200191505b5084810382528a818151815260200191508051906020019080838360005b83811015611751578082015181840152602081019050611736565b50505050905090810190601f16801561177e5780820380516001836020036101000a031916815260200191505b509b50505050505050505050505060405180910390a150505050565b6002600083815260200190815260200160002060009054906101000a900473ffffffffffffffffffffffffffffffffffffffff1673ffffffffffffffffffffffffffffffffffffffff163373ffffffffffffffffffffffffffffffffffffffff1614151561180757600080fd5b8060018381548110151561181757fe5b906000526020600020906004020160030160006101000a81548160ff0219169083151502179055507f8b7f6acba3b055579f158c2af4f518759366ed0a247fad9b45ce8aad59b2c51f60018381548110151561186f57fe5b9060005260206000209060040201600001826040518080602001831515151581526020018281038252848181546001816001161561010002031660029004815260200191508054600181600116156101000203166002900480156119145780601f106118e957610100808354040283529160200191611914565b820191906000526020600020905b8154815290600101906020018083116118f757829003601f168201915b5050935050505060405180910390a15050565b6002600085815260200190815260200160002060009054906101000a900473ffffffffffffffffffffffffffffffffffffffff1673ffffffffffffffffffffffffffffffffffffffff163373ffffffffffffffffffffffffffffffffffffffff1614151561199457600080fd5b826001858154811015156119a457fe5b906000526020600020906004020160030160016101000a81548160ff021916908360ff160217905550816001858154811015156119dd57fe5b906000526020600020906004020160030160026101000a81548160ff021916908360ff16021790555080600185815481101515611a1657fe5b906000526020600020906004020160030160026101000a81548160ff021916908360ff1602179055507f47b2f1f5f164c0daa8c8ca922f29fee9a9989dbd6f72a72b4dd2bfbddbc69add600185815481101515611a6f57fe5b906000526020600020906004020160000184848460405180806020018560ff1660ff1681526020018460ff1660ff1681526020018360ff1660ff168152602001828103825286818154600181600116156101000203166002900481526020019150805460018160011615610100020316600290048015611b305780601f10611b0557610100808354040283529160200191611b30565b820191906000526020600020905b815481529060010190602001808311611b1357829003601f168201915b50509550505050505060405180910390a150505050565b60606000821415611b8f576040805190810160405280600181526020017f30000000000000000000000000000000000000000000000000000000000000008152509050611c9b565b600082905060005b600082141515611bbd578080600101915050600a82811515611bb557fe5b049150611b97565b6060816040519080825280601f01601f191660200182016040528015611bf25781602001600182028038833980820191505090505b50905060006001830390505b600086141515611c9357600a86811515611c1457fe5b066030017f010000000000000000000000000000000000000000000000000000000000000002828280600190039350815181101515611c4f57fe5b9060200101907effffffffffffffffffffffffffffffffffffffffffffffffffffffffffffff1916908160001a905350600a86811515611c8b57fe5b049550611bfe565b819450505050505b919050565b828054600181600116156101000203166002900490600052602060002090601f016020900481019282601f10611ce157805160ff1916838001178555611d0f565b82800160010185558215611d0f579182015b82811115611d0e578251825591602001919060010190611cf3565b5b509050611d1c9190611da0565b5090565b828054600181600116156101000203166002900490600052602060002090601f016020900481019282601f10611d6157805160ff1916838001178555611d8f565b82800160010185558215611d8f579182015b82811115611d8e578251825591602001919060010190611d73565b5b509050611d9c9190611da0565b5090565b611dc291905b80821115611dbe576000816000905550600101611da6565b5090565b9056fea165627a7a72305820bd241771739f92982476919805c7f4b38de545e3e11ee9c5d2a39209a252407b0029",
  "source": "pragma solidity ^0.5.0;\n\ncontract LightBulbs {\n\n  event NewLightBulb(string hash_id, string name, string description, bool status, uint8 red, uint8 green, uint8 blue, uint8 intensity);\n  event NameChange(string hash_id, string name);\n  event DescriptionChange(string hash_id, string description);\n  event StatusChange(string hash_id, bool status);\n  event ColorChange(string hash_id, uint8 red, uint8 green, uint8 blue);\n  event IntensityChange(string hash_id, uint8 intensity);\n\n  struct LightBulb {\n    string hash_id; //in format Lib_1\n    string name; // front door \n    string description; // for plug -> what to, where\n    bool status; // true/false = on/off\n    uint8 red; // 0-255\n    uint8 green;\n    uint8 blue;\n    uint8 intensity; // 0-100\n  }\n\n  uint deviceCounter = 0;\n  LightBulb[] public lightBulbs;\n\n  mapping (uint => address) public lightBulbToOwner;\n\n  // fetch the number of  deviceslist in the contract\n  function getNumberOfdevices() public view returns (uint) {\n    return  deviceCounter;\n  }\n\n  // help function to convert uint 2 string\n  function uint2str(uint _i) internal pure returns (string memory _uintAsString) {\n    if (_i == 0) {\n        return \"0\";\n    }\n    uint j = _i;\n    uint len;\n    while (j != 0) {\n        len++;\n        j /= 10;\n    }\n    bytes memory bstr = new bytes(len);\n    uint k = len - 1;\n    while (_i != 0) {\n        bstr[k--] = byte(uint8(48 + _i % 10));\n        _i /= 10;\n    }\n    return string(bstr);\n  }\n\n  // fetch a device's information\n  function fetchDeviceStatus(uint256 _id) external view returns (\n    // string memory _hash_id,\n    string memory _name,\n    string memory _description,\n    bool _status, // true/false = on/off\n    uint8 _red, // 0-255\n    uint8 _green,\n    uint8 _blue,\n    uint8 _intensity // 0-100\n    ) {\n    return (\n    // _hash_id = lightBulbs[_id].hash_id,\n    _name = lightBulbs[_id].name,\n    _description = lightBulbs[_id].description,\n    _status = lightBulbs[_id].status,\n    _red = lightBulbs[_id].red,\n    _green = lightBulbs[_id].green,\n    _blue = lightBulbs[_id].blue,\n    _intensity = lightBulbs[_id].intensity\n    );\n  }\n\n  // Add a new device\n  function _addNewLightBulb(string memory _name, string memory _description) public {\n      uint _id = lightBulbs.push(LightBulb(\"Lib_X\", _name, _description, false, 255, 255, 255, 100)) - 1;\n      string memory _hash_id = string(abi.encodePacked(\"Lib_\", uint2str(_id)));\n      lightBulbs[_id].hash_id = _hash_id;\n\n      deviceCounter = _id+1;\n\n      lightBulbToOwner[_id] = msg.sender;\n      emit NewLightBulb(_hash_id, _name, _description, false, 255, 255, 255, 100);\n  }\n\n  // All changes\n  function _changeName(uint _lightBulbId, string memory _name) public {\n      require(msg.sender == lightBulbToOwner[_lightBulbId]);\n      lightBulbs[_lightBulbId].name = _name;\n      emit NameChange(lightBulbs[_lightBulbId].hash_id, _name);\n  }\n\n  function _changeStatus(uint _lightBulbId, bool _status) public {\n      require(msg.sender == lightBulbToOwner[_lightBulbId]);\n      lightBulbs[_lightBulbId].status = _status;\n      emit StatusChange(lightBulbs[_lightBulbId].hash_id, _status);\n  }\n\n  function _changeDescription(uint _lightBulbId, string memory _description) public {\n      require(msg.sender == lightBulbToOwner[_lightBulbId]);\n      lightBulbs[_lightBulbId].description = _description;\n      emit DescriptionChange(lightBulbs[_lightBulbId].hash_id, _description);\n  }\n\n  function _changeColor(uint _lightBulbId, uint8 _red, uint8 _green, uint8 _blue) public {\n      require(msg.sender == lightBulbToOwner[_lightBulbId]);\n      lightBulbs[_lightBulbId].red = _red;\n      lightBulbs[_lightBulbId].green = _green;\n      lightBulbs[_lightBulbId].green = _blue;\n      emit ColorChange(lightBulbs[_lightBulbId].hash_id, _red, _green, _blue);\n  }\n\n  function _changeIntensity(uint _lightBulbId, uint8 _intensity) public {\n      require(msg.sender == lightBulbToOwner[_lightBulbId]);\n      lightBulbs[_lightBulbId].intensity = _intensity;\n      emit IntensityChange(lightBulbs[_lightBulbId].hash_id, _intensity);\n  }\n\n} // end of contract\n",
  "sourcePath": "/Users/kainguyen/ethdata/truffle/contracts/LightBulbs.sol",
  "compiler": {
    "name": "solc",
    "version": "0.5.0+commit.1d4f565a.Emscripten.clang"
  },
  "schemaVersion": "3.0.6",
  "updatedAt": "2019-04-10T07:17:23.103Z",
  "devdoc": {
    "methods": {}
  },
  "userdoc": {
    "methods": {}
  }
}